:020000040800F2
:1000000000000120C5020008CB020008CF02000852
:1000100041030008450300088D03000800000000AC
:10002000000000000000000000000000D5030008F0
:10003000D903000800000000DD030008991500083E
:10004000F1030008F1030008F1030008F1030008C0
:10005000F1030008F103000825110008451100080C
:100060006511000885110008A5110008F1030008BA
:10007000F1030008F1030008F1030008F103000890
:10008000F1030008F1030008F1030008000000007C
:10009000000000000000000000000000C511000882
:1000A000F1030008F1030008F1030008F103000860
:1000B000F1030008F1030008F1030008F103000850
:1000C000F1030008F1030008F103000831150008EE
:1000D000F1030008BD1C0008F10300080000000047
:1000E0006D120008F1030008F10300080000000091
:1000F000000000000000000000000000F103000804
:1001000000000000F1030008F1030008F1030008FB
:1001100000000000000000000000000000000000DF
:1001200099100008B5100008C5100008D510000887
:10013000E5100008000000000000000000000000C2
:10014000000000000000000000000000F1030008B3
:10015000F51000080511000815110008F10300084A
:10016000F1030008F1030008000000000000000097
:10017000000000000000000000000000000000007F
:1001800000000000F1030008000000000000000073
:10019000F103000800B583B000F01AFF384B394A6C
:1001A0001360394A1360394906E052F8041B43F8DA
:1001B000041B9842F9D86146354B994205D20A682A
:1001C0004B6801F10C0C8868F3E72E4B1A68314B31
:1001D0009A4200D0FEE72C4B1A682F4B9A42F9D175
:1001E000274B2E4A13602E4A13602E4A00E0024627
:1001F0002D4B9A4209D2104650F8083B516899425B
:10020000F5D9002243F8042BF9E7244B1B6813B9F6
:10021000234B1B6803B1FEE701F0A6FD694601A868
:1002200000F0F4FD214C224BE41AA410002504E058
:100230001F4B53F8253098470135AC42F8DC1D4C74
:100240001D4BE41AA410002504E01B4B53F8253085
:1002500098470135AC42F8DC0099019801F096FD11
:100260000546164C164BE41AA41004E0013C144B4E
:1002700053F824309847002CF8DC284600F0A2FD03
:10028000BABADECA0000002074000020F40300089F
:100290000C04000878563412325476987800002006
:1002A000840100200C0400081C0400081C04000841
:1002B0001C0400081C0400081C0400081C0400089E
:1002C0001C04000808B5FFF765FF00BEFEE71EF03E
:1002D000040F0CBFEFF30880EFF309807146414A29
:1002E00010472DE9F04182B004460D46124B5F6B7A
:1002F000D3F838809E6A1B6B13F0020F03D00E4BAD
:10030000DB6A002B0BDB0D4800F0BEFD0095434679
:100310003A463146204600F0D1FD00BEFEE74BF6DE
:10032000AB6100F045FE0028EDD0034B4FF00042DA
:10033000DA6202B0BDE8F08100ED00E08C2C00082C
:1003400000BEFEE71EF0040F0CBFEFF30880EFF3D2
:1003500009807146244A10472DE9F04182B00446D5
:100360000D46084B5F6BD3F838809E6A064800F054
:100370008BFD009543463A463146204600F09EFDEF
:1003800000BEFEE700ED00E09C2C00081EF0040F0C
:100390000CBFEFF30880EFF309807146134A104752
:1003A0002DE9F04182B004460D46084B5F6BD3F84F
:1003B00038809E6A064800F067FD009543463A463D
:1003C0003146204600F07AFD00BEFEE700ED00E079
:1003D000A82C000800BEFEE700BEFEE700BEFEE758
:1003E00070470000E302000859030008A103000859
:0403F00000BEFEE766
:1003F400A82D00080000002078000020A82D000887
:100404000000001000000010780000208801002087
:080414000000001000000010C0
:1004200010B504460E4B1A784FF47A73B3FBF2F30F
:100430000C4A1068B0FBF3F000F0AEF868B90F2C6E
:1004400001D901200AE0002221464FF0FF3000F0E0
:100450007FF8054B1C60002000E0012010BD00BFAC
:1004600004000020140000200800002008B50B4BF9
:100470001A6842F400721A601A6842F480621A60C4
:100480001A6842F480721A60032000F043F80F20CB
:10049000FFF7C6FF01F0D0FC002008BD003C024081
:1004A000014B1868704700BF7C000020002808DB63
:1004B0000901C9B200F1604000F5614080F8001305
:1004C000704700F00F000901C9B2014B1954704781
:1004D00014ED00E000B500F00700C0F1070CBCF11E
:1004E000040F28BF4FF0040C031D062B0FD9C31EA9
:1004F0004FF0FF3E0EFA0CF021EA000199400EFA8F
:1005000003FE22EA0E0241EA02005DF804FB00232A
:10051000EEE7000010B50446C31E042B0FD80A4AAC
:10052000D36823F4E0631B041B0C240204F4E0648E
:10053000234343F0BF6343F40033D36010BD9221E3
:10054000024801F019FCEAE700ED00E00C2B00087E
:1005500070B506460C4615460F2A0ED80F2C11D83A
:100560000B4BD8682A462146C0F30220FFF7B2FFA2
:1005700001463046FFF79AFF70BDAA21054801F0F9
:10058000FBFBEBE7AB21034801F0F6FBE8E700BF1C
:1005900000ED00E00C2B00080138B0F1807F0BD299
:1005A0004FF0E0235861054AF02182F82310002023
:1005B000986107221A6170470120704700ED00E042
:1005C00008B5042807D068B94FF0E022136923F07A
:1005D0000403136108BD4FF0E022136943F00403E4
:1005E0001361F7E740F2C911014801F0C5FBEBE7E1
:1005F0000C2B0008002800F05B8270B582B0044626
:1006000003680F2B39D8236813F0010F4DD06368AE
:100610002BB1B3F5803F02D0B3F5A02F32D1804B80
:100620009B6803F00C03042B36D07D4B9B6803F0D2
:100630000C03082B2BD06368B3F5803F5FD0B3F574
:10064000A02F62D0764B1A6822F480321A601A68A2
:1006500022F480221A606368002B60D0FFF720FF2D
:1006600005466F4B1B6813F4003F1ED1FFF718FFC0
:10067000401B6428F5D9032021E2E821694801F0F4
:100680007BFBC0E7ED21674801F076FBC7E7644BD1
:100690005B6813F4800FCED0614B1B6813F4003FEE
:1006A00003D06368002B00F00582236813F0020F6B
:1006B00066D0E368012B41D823691F2B44D8584BDF
:1006C0009B6813F00C0F4AD0554B9B6803F00C034A
:1006D000082B3FD0E368002B77D0534B01221A60E0
:1006E000FFF7DEFE05464E4B1B6813F0020F63D189
:1006F000FFF7D6FE401B0228F5D90320DFE1484A68
:10070000136843F480331360A5E7454B1A6842F43D
:1007100080221A601A6842F480321A609BE7FFF761
:10072000BFFE05463E4B1B6813F4003FBDD0FFF7EC
:10073000B7FE401B6428F5D90320C0E140F21F1129
:10074000384801F019FBB7E74FF49071354801F0D4
:1007500013FBB4E7324B5B6813F4800FBAD1304B14
:100760001B6813F0020F03D0E368012B40F0A48153
:100770002B4A136823F0F803216943EAC10313608D
:10078000236813F0080F51D06369012B2FD86369D8
:100790009BB3254B0122C3F8802EFFF781FE05464F
:1007A0001F4B5B6F13F0020F40D1FFF779FE401B28
:1007B0000228F5D9032082E1194A136823F0F803CF
:1007C000216943EAC1031360DAE7174B00221A607C
:1007D000FFF766FE0546124B1B6813F0020FCFD0E1
:1007E000FFF75EFE401B0228F5D9032067E14FF4B6
:1007F000B0710C4801F0C0FAC9E70B4B0022C3F8F6
:10080000802EFFF74DFE0546054B5B6F13F0020F80
:100810000CD0FFF745FE401B0228F5D903204EE11E
:1008200000380240402B000800004742236813F0C4
:10083000040F7CD0A368012B01D9052B38D1A44B20
:100840001B6C13F0805F39D100230193A04B1A6C0D
:1008500042F080521A641B6C03F080530193019B99
:1008600001259C4B1B6813F4807F29D0A368012BC2
:100870003AD0052B3ED0964B1A6F22F001021A6730
:100880001A6F22F004021A67A368002B3CD0FFF70E
:1008900007FE06468E4B1B6F13F0020F45D1FFF784
:1008A000FFFD801B41F288339842F3D9032006E113
:1008B0004FF4C671884801F05FFAC0E70025D0E721
:1008C000844A136843F480731360FFF7E9FD06461A
:1008D000804B1B6813F4807FC8D1FFF7E1FD801BBC
:1008E0000228F5D90320EAE0794A136F43F00103A7
:1008F0001367C9E7764B1A6F42F004021A671A6F42
:1009000042F001021A67BFE7FFF7CAFD0646704BC7
:100910001B6F13F0020F08D0FFF7C2FD801B41F2DE
:1009200088339842F3D90320C9E0002D3ED1A36952
:10093000022B41D8A369002B00F0C080644A926862
:1009400002F00C02082A00F09380022B7CD1E369AC
:1009500013B1B3F5800F35D1236A3F2B38D8636AC2
:10096000323BB3F5BF7F39D8A36A022B08D0082BDE
:100970003AD84FF4A87222FA03F313F0010F33D0E0
:10098000E36A023B0D2B35D8544B00221A66FFF761
:1009900087FD05464E4B1B6813F0007F30D0FFF7F4
:1009A0007FFD401B0228F5D9032088E0484A136CDC
:1009B00023F080531364BAE740F2CF11464801F0A8
:1009C000DBF9B7E74FF4EC71434801F0D5F9C3E721
:1009D00040F2D911404801F0CFF9C0E74FF4ED7172
:1009E0003D4801F0C9F9BFE740F2DB113A4801F098
:1009F000C3F9C5E74FF4EE71374801F0BDF9C3E71D
:100A0000E369226A1343626A43EA8213A26A5208C4
:100A1000013A43EA0243E26A43EA02632C4A536022
:100A20002E4B01221A66FFF73BFD0446284B1B683C
:100A300013F0007F06D1FFF733FD001B0228F5D924
:100A400003203CE000203AE0244B00221A66FFF726
:100A500027FD04461E4B1B6813F0007F06D0FFF7EE
:100A60001FFD001B0228F5D9032028E0002026E006
:100A7000012B26D0164B5B6803F48001E26991429A
:100A800021D103F03F02216A8A421ED1616A47F6F2
:100A9000C0721A408A4223D103F44032A16A8A42CA
:100AA00020D103F07063E26A93421DD1002006E07A
:100AB00001207047012002E0012000E0002002B088
:100AC00070BD0120FBE70120F9E70120F7E700BF37
:100AD0000038024000700040402B000800004742F0
:100AE0000120ECE70120EAE70120E8E708B5264B02
:100AF0009B6803F00C03042B41D0082B41D1224BFF
:100B00005A6802F03F025B6813F4800F12D01E4B4C
:100B10005968C1F388111D480023A1FB000101F0B1
:100B20008DF9194B5B68C3F3014301335B00B0FBE4
:100B3000F3F027E0144B5868C0F388104FEA401CCC
:100B4000BCEB000C6EEB0E0E4FEA8E1343EA9C6377
:100B50004FEA8C11B1EB0C0163EB0E03DB0043EAAF
:100B60005173C90011EB000C43F1000399020023FB
:100B70004FEA8C2041EA9C5101F060F9D1E703482B
:100B800000E0034808BD00BF0038024040787D0106
:100B90000024F400002800F0FA8070B50D460446E9
:100BA0000368013B0E2B30D8072D34D87C4B1B68D3
:100BB00003F00F03AB4208D2EBB2794A137013680B
:100BC00003F00F03AB4240F0E480236813F0020F00
:100BD00032D013F0040F04D0724A936843F4E05308
:100BE0009360236813F0080F04D06E4A936843F4AF
:100BF00060439360A368C3B1C02B16D049D8A02B23
:100C000013D00ED9B02B10D049E040F251216648E4
:100C100001F0B2F8C8E740F25221634801F0ACF8A5
:100C2000C4E7802B01D0902B39D15E4A936823F022
:100C3000F003A1680B439360236813F0010F48D0C1
:100C40006368032B31D86368012B34D09A1E012AC4
:100C500038D9544A126812F0020F00F09C805149B2
:100C60008A6822F0030213438B60FFF719FC0646E3
:100C70004C4B9B6803F00C036268B3EB820F28D0E7
:100C8000FFF70EFC801B41F288339842F0D9032015
:100C900070E0E02BC9D0F02BC7D0D02BC5D040F2EC
:100CA0007521414801F068F8BFE74FF41F713E48D5
:100CB00001F062F8C7E73B4A126812F4003FCED158
:100CC000012057E0374A126812F0007FC7D1012097
:100CD00050E0334B1B6803F00F03AB4207D9EAB275
:100CE0002F4B1A701B6803F00F03AB4255D12368DA
:100CF00013F0040F14D0E3685BB1B3F5805F08D044
:100D0000B3F5A05F05D0B3F5C05F02D0B3F5E05FE7
:100D100031D1244A936823F4E053E1680B43936094
:100D2000236813F0080F15D023695BB1B3F5805F1A
:100D300008D0B3F5A05F05D0B3F5C05F02D0B3F51E
:100D4000E05F1ED1174A936823F46043216943EAA8
:100D5000C1039360FFF7CAFE124B9B68C3F30313F2
:100D6000124AD35CD840124B1860124B1868FFF738
:100D700057FB002070BD40F2BA210B4800F0FCFF89
:100D8000C7E740F2C121084800F0F6FFDAE701208A
:100D900070470120EEE70120ECE70120EAE700BF01
:100DA000003C024000380240402B0008B82C0008EC
:100DB0001400002008000020014B1868704700BF95
:100DC00014000020FEE7000008B503460C4A126834
:100DD0005AB10B4A1068033323F003030344094A52
:100DE000934206D8064A136008BD054A06491160B9
:100DF000EFE701F0D5F90C2303604FF0FF30F3E784
:100E00008000002000FC00208801002001230360F6
:100E1000014B0B60704700BF0C0000202DE9F04330
:100E200085B004460F4643563BBB04252846214661
:100E3000ABBE0546384605B0BDE8F08314F901CBDA
:100E400003F110026A4402F810CC0133AB42F5D32F
:100E500010336B44002203F8102C4FF00408E946CD
:100E600040464946ABBE8046761B002EE2D0354652
:100E7000102E28BF10250023E8E70E46F5E708B539
:100E8000FFF7CCFF08BD00000FB400B583B004AB82
:100E900053F8042B01938021074801F073F90028CF
:100EA00004DC03B05DF804EB04B07047014602486F
:100EB000FFF7E5FFF5E700BF8C000020F8B504461A
:100EC0000D4617461E462748FFF7DEFF21682648D5
:100ED000FFF7DAFF61682548FFF7D6FFA1682448CD
:100EE000FFF7D2FFE1682348FFF7CEFF21692248D0
:100EF000FFF7CAFF61692148FFF7C6FFA1692048D3
:100F0000FFF7C2FFE1691F48FFF7BEFF1E48FFF76A
:100F1000BBFF29461D48FFF7B7FF1D4CE16A1D487E
:100F2000FFF7B2FF216B1C48FFF7AEFFE16B1B48D8
:100F3000FFF7AAFF15F0800F0AD115F4004F0CD16E
:100F40001748FFF7A1FF06991648FFF79DFFF8BD68
:100F500039461548FFF798FFEFE731461348FFF78A
:100F600093FFEDE7702B0008802B0008902B000802
:100F7000A02B0008B02B0008C02B0008D02B0008C5
:100F8000E02B0008F02B0008002C00080C2C0008B7
:100F900000ED00E01C2C00082C2C00083C2C000864
:100FA0006C2C0008742C00084C2C00085C2C0008E9
:100FB00083691A888A4201D0002070470268033A88
:100FC000012A01D900207047023383610120704754
:100FD00008B500F009F8024A024B9A6008BD00BF4C
:100FE0000000000800ED00E0024B4FF000629A6044
:100FF000704700BF00ED00E0224B9B6803F00C033C
:10100000042B14D0082B16D01BB11F4B1F4A1A609B
:1010100002E01D4B1D4A1A601A4B9B68C3F3031371
:101020001B4AD15C184A1368CB4013607047164BBB
:10103000184A1A60F0E7134B59685A6802F03F02E9
:1010400011F4800F13D0134BB3FBF2F30D4A526827
:10105000C2F3881202FB03F30A4A5268C2F3014248
:1010600001325200B3FBF2F3074A1360D4E7074B97
:10107000B3FBF2F3034A5268C2F3881202FB03F394
:10108000EAE700BF00380240140000200024F4000A
:10109000B82C000840787D0108B5044B1B681BB1D3
:1010A0009847034B3D229A6008BD00BF0C01002009
:1010B0000064024008B5024B5B6803B1984708BD65
:1010C0000C01002008B5024B9B6803B1984708BD8E
:1010D0000C01002008B5024BDB6803B1984708BD3E
:1010E0000C01002008B5024B1B6903B1984708BDED
:1010F0000C01002008B5024B5B6903B1984708BD9D
:101100000C01002008B5024B9B6903B1984708BD4C
:101110000C01002008B5024BDB6903B1984708BDFC
:101120000C01002008B5054B1B6803B19847044A21
:10113000536943F00103536108BD00BF2C01002037
:10114000003C014008B5054B5B6803B19847044A71
:10115000536943F00203536108BD00BF2C01002016
:10116000003C014008B5054B9B6803B19847044A11
:10117000536943F00403536108BD00BF2C010020F4
:10118000003C014008B5054BDB6803B19847044AB1
:10119000536943F00803536108BD00BF2C010020D0
:1011A000003C014008B5054B1B6903B19847044A50
:1011B000536943F01003536108BD00BF2C010020A8
:1011C000003C014008B5274B5B6913F0200F09D0A4
:1011D000254B5B692BB19847224A536943F02003A2
:1011E000536108BD1F4B5B6913F0400F0AD01E4BC3
:1011F0009B69002BF5D098471A4A536943F0400386
:101200005361EEE7174B5B6913F0800F0AD0164B62
:10121000DB69002BE5D09847124A536943F08003FD
:101220005361DEE70F4B5B6913F4807F0AD00E4BEE
:101230001B6A002BD5D098470A4A536943F0200314
:101240005361CEE7074B5B6913F4007FC9D0064BAF
:101250005B6A002BC5D09847024A536943F4007378
:101260005361BEE7003C01402C01002008B52F4B24
:101270005B6913F4806F09D02D4B9B6A2BB19847A3
:101280002A4A536943F48063536108BD274B5B6965
:1012900013F4006F0AD0264BDB6A002BF5D0984779
:1012A000224A536943F400635361EEE71F4B5B69C5
:1012B00013F4805F0AD01E4B1B6B002BE5D09847C0
:1012C0001A4A536943F480535361DEE7174B5B6955
:1012D00013F4005F0AD0164B5B6B002BD5D09847F8
:1012E000124A536943F400535361CEE70F4B5B69D5
:1012F00013F4804F0AD00E4B9B6B002BC5D0984740
:101300000A4A536943F480435361BEE7074B5B6964
:1013100013F4004FB9D0064BDB6B002BB5D09847C8
:10132000024A536943F400435361AEE7003C014075
:101330002C010020034620B9A1F10D00C0B2022803
:101340000DD9012B07D010B4012B15D0022B1FD0C3
:1013500033B110BC7047C81EC0B20128F3D8704723
:10136000114C236849000320884023EA000302FA55
:1013700001F10B432360ECE70C4C23684900032088
:10138000884023EA000302FA01F10B432360E0E7FF
:10139000074C236849000320884023EA00038A4061
:1013A00013432360D5E700BF000002400004024061
:1013B00000080240034620B9A1F10D00C0B2022886
:1013C00006D9012B05D0012B2BD0022B4CD02BB1F1
:1013D0007047C81EC0B20128F5D8F9E707290FD811
:1013E000324B186A89004FF00F0C0CFA01FC20EA0E
:1013F0000C001862186A02FA01F101431962704781
:101400002A4B586A083989004FF00F0C0CFA01FC7E
:1014100020EA0C005862586A02FA01F1014359624D
:10142000704707290FD8224B186A89004FF00F0C1C
:101430000CFA01FC20EA0C001862186A02FA01F1A9
:101440000143196270471A4B586A083989004FF0F6
:101450000F0C0CFA01FC20EA0C005862586A02FAE0
:1014600001F101435962704707290FD8114B186ADF
:1014700089004FF00F0C0CFA01FC20EA0C001862F6
:10148000186A02FA01F1014319627047094B586A60
:10149000083989004FF00F0C0CFA01FC20EA0C000F
:1014A0005862586A8A4002435A6291E7000002403B
:1014B00000040240000802400A4A136843F0010396
:1014C0001360084B1B6813F0020FFAD0054A9368AB
:1014D00023F003039360936823F47C4323F0F00329
:1014E000936070470038024003281ED8DFE800F000
:1014F000020910170D48036C01228A40134303644C
:1015000070470A48436C01228A4013434364704782
:101510000648036B01228A40134303637047034864
:10152000436B01228A4013434363704700380240F3
:1015300008B5034B1B6803B108BD9847FCE700BF23
:101540006C0100204FF0E022136943F004031361A3
:10155000704720F07F404FF0E023586100229A61ED
:101560001A6942F001021A61704708B54FF0E02392
:1015700000229A614FF47A5303FB00F0FFF7E9FF72
:101580004FF0E0231B6913F4803FF9D04FF0E023C4
:1015900000225A619A6108BD08B5044B1B6803B16B
:1015A00098474FF0E0231B6908BD00BF7001002081
:1015B0000378002B40F0A280427883785B0143EAF5
:1015C000C213C27843EA0213027943EAC2034279A2
:1015D00043EA82034FF080421360002393600123AB
:1015E0005361C379012B21D0022B3ED0032B5DD058
:1015F000042B40F08B804FF08042D36923F47F436B
:10160000817943EA0133D361D36943F40063D36141
:10161000037A002B6BD1136A23F4005313624FF04B
:101620008042136A43F4805313627047936923F036
:10163000FF03817943EA01139361936943F008033F
:101640009361037A53B9136A23F0020313624FF0D4
:101650008042136A43F00103136270474FF08042E7
:10166000136A43F002031362F1E74FF0804293697B
:1016700023F47F43817943EA01339361936943F40F
:1016800000639361037A53B9136A23F02003136252
:101690004FF08042136A43F01003136270474FF01B
:1016A0008042136A43F020031362F1E74FF0804257
:1016B000D36923F0FF03817943EA0113D361D3692E
:1016C00043F00803D361037A53B9136A23F4007318
:1016D00013624FF08042136A43F4807313627047C1
:1016E0004FF08042136A43F400731362F1E74FF046
:1016F0008042136A43F40053136290E7012B06D033
:10170000022B00F09980032B00F030817047427863
:1017100083785B0143EAC213C27843EA0213027979
:1017200043EAC203427943EA82038E4A13600023EC
:10173000936001235361C379012B1ED0022B39D052
:10174000032B55D0042BE1D1864AD36923F47F4380
:10175000817943EA0133D361D36943F40063D361F0
:10176000037A002B62D1136A23F4005313627D4A7B
:10177000136A43F4805313627047936923F0FF03A5
:10178000817943EA01139361936943F008039361FC
:10179000037A4BB9136A23F002031362714A136A86
:1017A00043F00103136270476E4A136A43F0020369
:1017B0001362F3E76B4A936923F47F43817943EA29
:1017C00001339361936943F400639361037A4BB9E6
:1017D000136A23F020031362624A136A43F0100372
:1017E000136270475F4A136A43F020031362F3E702
:1017F0005C4AD36923F0FF03817943EA0113D36183
:10180000D36943F00803D361037A4BB9136A23F415
:1018100000731362534A136A43F480731362704770
:10182000504A136A43F400731362F3E74D4A136A94
:1018300043F4005313629AE7427883785B0143EAEA
:10184000C213C27843EA0213027943EAC20342791F
:1018500043EA8203444A13600023936001235361E7
:10186000C379012B1FD0022B3AD0032B56D0042B67
:101870007FF44CAF3C4AD36923F47F43817943EA38
:101880000133D361D36943F40063D361037A002B3E
:1018900062D1136A23F400531362334A136A43F488
:1018A000805313627047936923F0FF03817943EA01
:1018B00001139361936943F008039361037A4BB971
:1018C000136A23F002031362274A136A43F00103E9
:1018D00013627047244A136A43F002031362F3E76A
:1018E000214A936923F47F43817943EA0133936169
:1018F000936943F400639361037A4BB9136A23F04D
:1019000020031362184A136A43F0100313627047EE
:10191000154A136A43F020031362F3E7124AD369AE
:1019200023F0FF03817943EA0113D361D36943F0C4
:101930000803D361037A4BB9136A23F4007313626B
:10194000094A136A43F4807313627047064A136AA4
:1019500043F400731362F3E7034A136A43F400533A
:1019600013629AE7000C004000040040427883783C
:101970005B0143EAC213C27843EA0213027943EAE5
:10198000C203427943EA8203434A1360002393600F
:1019900001235361C379012B1FD0022B3AD0032BB3
:1019A00056D0042B7FF4B2AE3B4AD36923F47F4375
:1019B000817943EA0133D361D36943F40063D3618E
:1019C000037A002B62D1136A23F400531362324A64
:1019D000136A43F48053136298E6936923F0FF037C
:1019E000817943EA01139361936943F0080393619A
:1019F000037A4BB9136A23F002031362264A136A6F
:101A000043F0010313627047234A136A43F0020351
:101A10001362F3E7204A936923F47F43817943EA11
:101A200001339361936943F400639361037A4BB983
:101A3000136A23F020031362174A136A43F010035A
:101A400013627047144A136A43F020031362F3E7EA
:101A5000114AD36923F0FF03817943EA0113D3616B
:101A6000D36943F00803D361037A4BB9136A23F4B3
:101A700000731362084A136A43F480731362704759
:101A8000054A136A43F400731362F3E7024A136AC8
:101A900043F4005313629AE70008004003281BD860
:101AA000DFE800F00215090F4FF08042136843F0A1
:101AB000010313607047094A136843F00103136080
:101AC0007047074A136843F0010313607047054AE3
:101AD000136843F001031360704700BF0004004027
:101AE00000080040000C004003280FD8DFE800F099
:101AF000020C06094FF0804399627047044B9962CB
:101B00007047044B99627047034B9962704700BF5E
:101B10000004004000080040000C0040032852D898
:101B2000DFE800F0023F192C013903294BD8DFE828
:101B300001F002060A0E4FF080435A6370474FF0DF
:101B400080439A6370474FF08043DA6370474FF0E9
:101B500080431A6470470139032934D8DFE801F063
:101B60000205080B184B5A637047174B9A6370476E
:101B7000154BDA637047144B1A6470470139032917
:101B800021D8DFE801F00205080B104B5A637047BB
:101B90000E4B9A6370470D4BDA6370470B4B1A6418
:101BA0007047013903290ED8DFE801F00205080B60
:101BB000074B5A637047064B9A637047044BDA63CE
:101BC0007047034B1A64704700040040000800404F
:101BD000000C004003280FD8DFE800F0020C0609D3
:101BE0004FF08043D9627047044BD9627047044B71
:101BF000D9627047034BD962704700BF00040040B0
:101C000000080040000C0040032813D8DFE800F073
:101C1000020F070B4FF0804300225A627047064BB9
:101C200000225A627047054B00225A627047044BEB
:101C300000225A62704700BF0004004000080040C4
:101C4000000C004008B503282ED8DFE800F002237E
:101C50000F194FF08043DB6A03FB0222134BA3FBF7
:101C600002325209013AFFF759FF08BD104BDB6AF7
:101C700003FB02220D4BA3FB02325209013AF2E7A9
:101C80000C4BDB6A03FB0222084BA3FB0232520916
:101C9000013AE8E7084BDB6A03FB0222034BA3FB94
:101CA00002325209013ADEE70022DCE71F85EB51E0
:101CB0000004004000080040000C004008B5024B42
:101CC0001B68984708BD00BF7401002070B594B030
:101CD00000240194214B1A6C42F080521A641B6C50
:101CE00003F080530193019B02941D4B1A6842F448
:101CF00040421A601B6803F440430293029B012395
:101D000008934FF4803309934FF480030F93192302
:101D100010934FF4A873119304261296072313937C
:101D200002250E9508A8FEF765FC0F230393049582
:101D300005944FF4805306930794294603A8FEF7B1
:101D400029FFFFF739F8074BA3FB00308009FEF7A6
:101D500023FC3046FEF734FC14B070BD003802405E
:101D600000700040D34D621008B5FEF77FFBFFF70F
:101D7000ADFFFFF741F908BD08B50A460146024824
:101D8000FFF782F8FEE700BFC82C000810B5FFF788
:101D900093FBFFF7D7FB00210846FFF7A5FB0021C7
:101DA0000220FFF7A1FB022203210020FFF7C2FA65
:101DB000012203210020FFF7FDFA1E48FFF7F8FB80
:101DC0000F210020FFF790FE032204210020FFF7DF
:101DD00039FF002300E0013341F287329342FAD900
:101DE00044F61F610020FFF7F5FE0320FFF70CFF0C
:101DF0000020FFF753FE1AE0224604210020FFF7DF
:101E00008DFE0520FFF7B1FB0134B4F5166FF3D951
:101E100040F65F1408E0224604210020FFF77EFE12
:101E20000520FFF7A2FB013CB4F5167FF3D84FF471
:101E30001674EAE7180000207047000053B94AB949
:101E4000002908BF00281CBF4FF0FF314FF0FF30C2
:101E500000F06AB9ADF1080C6DE904CE00F006F8A7
:101E6000DDF804E0DDE9022304B070472DE9F04716
:101E7000089D0C46002B4ED194468C458646B2FAFE
:101E800082F262D94AB1C2F12003914020FA03F3F1
:101E90000CFA02FC194300FA02FE4FEA1C471FFA33
:101EA0008CF6B1FBF7F44FEA1E4307FB141143EA2B
:101EB000014304FB06F199420AD91CEB030304F128
:101EC000FF3080F01281994240F20F81023C63445E
:101ED000591A1FFA8EF3B1FBF7F007FB101143EA12
:101EE000014300FB06F69E420AD91CEB030300F1F6
:101EF000FF3180F0FC809E4240F2F980634402385A
:101F00009B1B40EA044000211DB1D3400022C5E9DB
:101F10000032BDE8F0878B4205D90DB1C5E900015B
:101F200000210846F5E7B3FA83F1002946D1A34220
:101F300002D39042C0F0F080861A64EB03030120C4
:101F4000002DE6D0C5E90063E3E7002A40F0908069
:101F5000A1EB0C044FEA1C481FFA8CF70121B4FBDB
:101F6000F8F64FEA1E4308FB164443EA044307FB16
:101F700006F0984208D91CEB030306F1FF3402D2A5
:101F8000984200F2CD8026461C1A1FFA8EF3B4FB4D
:101F9000F8F008FB104443EA044300FB07F79F42B4
:101FA00008D91CEB030300F1FF3402D29F4200F278
:101FB000B0802046DB1B40EA0640A5E7C1F12006C1
:101FC0008B4022FA06F71F4320FA06FC04FA01F3BD
:101FD00043EA0C03F44000FA01F8380C4FEA1349C5
:101FE000B4FBF0FE1FFA87FC00FB1E4449EA0444E0
:101FF0000EFB0CF9A14502FA01F20AD93C190EF1C7
:10200000FF3A80F08480A14540F28180AEF1020E5B
:102010003C44A4EB09041FFA83F9B4FBF0F300FB82
:10202000134449EA044403FB0CFCA44507D93C19BA
:1020300003F1FF3067D2A44565D9023B3C4443EA33
:102040000E40A0FB0293A4EB0C049C42CE469C469F
:1020500051D34ED055B1B8EB0E0364EB0C0404FA27
:1020600006F6CB401E43CC40C5E90064002150E792
:10207000C2F1200320FA03F10CFA02FC24FA03F364
:1020800094400C434FEA1C4800FA02FE1FFA8CF7FA
:10209000B3FBF8F008FB1031230C43EA014300FBCB
:1020A00007F1994208D91CEB030300F1FF362CD24B
:1020B00099422AD9023863445B1AA4B2B3FBF8F1FF
:1020C00008FB113344EA034401FB07F3A34208D998
:1020D0001CEB040401F1FF3613D2A34211D90239DB
:1020E0006444E41A41EA004139E70446F0E6084650
:1020F00006E7C845AED2B9EB020E63EB070C013818
:10210000A8E73146EDE7034699E73046D4E7D646DF
:102110007FE7634402384DE70646234608460FE74B
:10212000023E634430E700BF704700BF30B514463D
:10213000002C9BB005461A4605DA8B2303604FF04E
:10214000FF301BB030BD4FF40273ADF80C3014BF3C
:1021500004F1FF332346029305934FF6FF7300917A
:102160000491ADF80E3069461E9B00F07BF8431CCD
:10217000BCBF8B232B60002CE3D0009B00221A7085
:10218000DFE7000007B5009313460A4601460348FF
:102190000068FFF7CBFF03B05DF804FB24000020CC
:1021A000014B1868704700BF240000202DE9F0475C
:1021B0008E681F46BE420B6882460C4690462DD85C
:1021C000B1F90C2012F4906F26D06569096905EB0E
:1021D0004505A3EB010905EBD5757B1C4B446D1040
:1021E0009D4238BF1D46530527D5294600F0BAFB4E
:1021F000064660B321694A4600F03AFBA38923F4FE
:10220000906343F08003A381266165614E44A5EB92
:1022100009052660A5603E46BE4200D93E462068BC
:102220003246414600F0B4FAA3689B1BA3602368C2
:10223000334423600020BDE8F0872A4600F01EFCEE
:1022400006460028E0D12169504600F01FFB0C2310
:10225000CAF80030A38943F04003A3814FF0FF3058
:10226000E9E700002DE9F04F98468B891B069DB0E9
:1022700007460D46144610D50B6973B9402100F08E
:1022800071FB2860286130B90C233B604FF0FF30B0
:102290001DB0BDE8F08F40236B610023099320231C
:1022A0008DF82930CDF80C803023DFF89C818DF833
:1022B0002A304FF0010923469A4613F8012B0AB140
:1022C000252AF9D1BAEB040B0BD05B4622462946EE
:1022D0003846FFF76BFF013000F0A780099A5A4497
:1022E00009929AF80030002B00F09F8000234FF0F5
:1022F000FF32CDE905230AF1010A049307938DF813
:1023000053301A935446052214F8011B4E4800F02E
:102310005FFA049AD8B9D00644BF20238DF8533011
:10232000110744BF2B238DF853309AF800302A2B25
:1023300015D0079A544600204FF00A0C214611F898
:10234000013B303B092B4BD9B0B1079214E0A0EB15
:10235000080309FA03F313430493A246D2E7039B4D
:10236000191D1B680391002BBBBF5B4242F00202A8
:1023700007930793B8BF049223782E2B0AD1637872
:102380002A2B32D1039B1A1D1B68039243EAE37385
:1023900002340593DFF8B4A021780322504600F000
:1023A00017FA38B1049BA0EB0A0040228240134385
:1023B0000134049314F8011B25488DF828100622D7
:1023C00000F006FA002836D0224B1BBB039B0733D4
:1023D00023F0070308330393099B334409936AE707
:1023E0000CFB02320C460120A8E7002301340593C0
:1023F00019464FF00A0C204610F8012B303A092AF2
:1024000003D9002BC6D00591C4E70CFB012104467B
:102410000123F0E703AB00932A460F4B04A938468B
:10242000AFF30080421C0646D6D1AB895B063FF570
:102430002DAF09982CE703AB00932A46064B04A95D
:10244000384600F079F8EDE7F52C0008FB2C000881
:10245000FF2C000800000000AD2100082DE9F04726
:10246000164698468A680B69DDF820909342B8BFFB
:102470001346336091F8432007460C460AB10133F6
:1024800033602368990642BF33680233336025689E
:1024900015F0060506D104F1190AE36832689B1AA3
:1024A000AB4226DC94F843302268003B18BF01237E
:1024B00092062BD404F1430241463846C847013006
:1024C0001ED02368226903F00603042B02BFE568CF
:1024D0003368ED1AA3680CBF25EAE5750025934221
:1024E000C4BF9B1AED1800261A34B5421AD1002039
:1024F00008E00123524641463846C847013003D11F
:102500004FF0FF30BDE8F0870135C6E7E1185A1CEF
:10251000302081F84300224494F8451082F843109B
:102520000233C7E70123224641463846C8470130F7
:10253000E6D00136D9E700002DE9FF470F7E0C9E5B
:10254000782F914680460C469A4601F1430207D8FF
:10255000622F0AD8002F00F0DD80582F00F0C380D2
:1025600004F1420684F842703AE0A7F16303152BA8
:10257000F6D801A151F823F0D1250008E52500087F
:102580006125000861250008612500086125000813
:10259000E52500086125000861250008612500087F
:1025A00061250008FB26000873260008B3260008F2
:1025B00061250008612500081D2700086125000825
:1025C000732600086125000861250008BB26000865
:1025D00033681A1D1B68326004F1420684F84230E9
:1025E0000123A8E031682368081D30601E0601D56C
:1025F0000D6803E05D06FBD5B1F900506168002D60
:1026000078DA2D20002984F84300A1602DDA5E4895
:102610006D420A231646B5FBF3F103FB1157C75D64
:1026200006F8017D2F46BB420D46F4D9082B0BD18D
:102630002368DF0708D5236961689942DEBF30232C
:1026400006F8013C06F1FF36921B2261CDF800A08E
:102650004B4603AA21464046FFF700FF01306FD1E9
:102660004FF0FF3004B0BDE8F08723F0040323608F
:10267000CDE721683368080653F8045B02D44906A5
:1026800048BFADB26F2F4048336014BF0A23082300
:10269000002184F843106668A660002EBADB21682A
:1026A00021F004012160002DB4D1002EB2D11646D4
:1026B000BCE7236843F0200323603448782784F87C
:1026C0004570236831681F0651F8045B02D45F0629
:1026D00048BFADB23160D90744BF43F02003236047
:1026E0001DB11023D4E72848E9E7236823F020032D
:1026F0002360F6E724480A23CDE73368256861693B
:10270000181D30602E061B6801D5196002E06806AE
:10271000FBD5198000232361164697E733681A1DFD
:1027200032601E6862680021304600F051F808B13E
:10273000801B606063682361002384F8433085E771
:102740002369324649464046D047013088D0236845
:102750009B0714D4E068039B9842B8BF184681E7F2
:102760000123324649464046D04701303FF478AF16
:102770000135E36803995B1AAB42F1DCEAE7002517
:1027800004F11906F5E700BF062D0008172D000813
:10279000884210B501EB020402D98442234607D8CF
:1027A000431EA14208D011F8012B03F8012FF8E7CE
:1027B000024401468A4200D110BD13F8014D02F8CF
:1027C000014DF7E7000000000000000000000000DD
:1027D00001F0FF01102A2BDB10F0070F08D010F8D2
:1027E000013B013A8B422DD010F0070F42B3F6D1D6
:1027F000F0B441EA012141EA014122F007047FF0EF
:1028000000070023F0E80256083C85EA010586EA45
:10281000010685FA47F5A3FA87F586FA47F6A5FA81
:1028200087F68EB9EED1F0BC01F0FF0102F007028D
:1028300032B110F8013B013A83EA010313B1F8D138
:102840000020704701387047002D06BF3546033819
:10285000073815F0010F07D1013015F4807F02BF52
:10286000013015F4C03F0130F0BC0138704700BFA3
:102870000A44914200F1FF3300D1704710B511F8BE
:10288000014B03F8014F9142F9D110BD38B505460F
:10289000002941D051F8043C0C1F002BB8BFE418AC
:1028A00000F0E0F81D4A136833B9636014602846ED
:1028B000BDE8384000F0DCB8A34208D920682118F0
:1028C0008B4201BF19685B6809182160EDE71A4661
:1028D0005B680BB1A342FAD911685018A0420BD122
:1028E00020680144501883421160E0D118685B6889
:1028F000536008441060DAE702D90C232B60D6E756
:10290000206821188B4204BF19685B68636004BFAC
:10291000091821605460CAE738BD00BF7C0100205F
:1029200070B50F4E0C463168054611B900F0D4F869
:1029300030602146284600F0CFF8431C03D14FF009
:10294000FF34204670BDC41C24F00304A042F8D01C
:10295000211A284600F0C0F80130F2D1EFE700BF9D
:10296000780100202DE9F843CD1C25F0030508353A
:102970000C2D38BF0C25002D064601DBA94204D9D9
:102980000C2333600020BDE8F883DFF8D48000F02A
:1029900069F8D8F800301C4644BB29463046FFF79A
:1029A000BFFF431C044658D1D8F800402746002FEB
:1029B00043D1002C4BD023683946304604EB030941
:1029C00000F08AF8814542D121686D1A29463046C7
:1029D000FFF7A6FF01303AD023682B442360D8F8D4
:1029E00000305A6862BBC8F800700FE02268521BC2
:1029F00020D40B2A17D96119A342256018BF59604A
:102A0000636808BFC8F8001062514B60304600F0A0
:102A10002FF804F10B00231D20F00700C21A1CBF81
:102A20001B1AA350AFE76268A3420CBFC8F800208E
:102A30005A60EBE723466468AEE73C467F68B6E73A
:102A40001A465B68A342FBD100235360DEE70C23E8
:102A50003360304600F00CF894E70560D6E700BF1D
:102A60007C010020014800F047B800BF8001002031
:102A7000014800F042B800BF800100202DE9F0417C
:102A8000804615460C4621B9BDE8F0411146FFF7D6
:102A900069BF2AB9FFF7FAFE00242046BDE8F0819D
:102AA00000F02CF88542064602D8B5EB500FF4D85A
:102AB00029464046FFF756FF07460028ECD0B542AE
:102AC0002A46214628BF3246FFF7D2FE214640461D
:102AD000FFF7DCFE3C46E0E738B5064D0023044630
:102AE00008462B60FEF770F9431C02D12B6803B136
:102AF000236038BD880000207047704751F8043CBF
:102B0000181F002BBCBF0B58C01870472E2E2F73F8
:102B1000797374656D2F7372632F73746D333266BE
:102B2000342D68616C2F73746D3332663478785F3E
:102B300068616C5F636F727465782E6300000000DB
:102B40002E2E2F73797374656D2F7372632F7374C8
:102B50006D333266342D68616C2F73746D33326659
:102B60003478785F68616C5F7263632E6300000085
:102B7000537461636B206672616D653A0A000000F0
:102B8000205230203D2020253038580A0000000017
:102B9000205231203D2020253038580A0000000006
:102BA000205232203D2020253038580A00000000F5
:102BB000205233203D2020253038580A00000000E4
:102BC00020523132203D20253038580A00000000C4
:102BD000204C52203D2020253038580A00000000AB
:102BE000205043203D2020253038580A00000000A6
:102BF00020505352203D20253038580A0000000054
:102C00004653522F4641523A0A0000002043465391
:102C100052203D2020253038580A000020484653D5
:102C200052203D2020253038580A000020444653C9
:102C300052203D2020253038580A000020414653BC
:102C400052203D2020253038580A0000204D4D46A6
:102C50004152203D20253038580A0000204246418C
:102C600052203D2020253038580A00004D697363FA
:102C70000A000000204C522F4558435F52455455DE
:102C8000524E3D20253038580A0000005B486172E2
:102C9000644661756C745D0A000000005B427573E8
:102CA0004661756C745D0A005B55736167654661CA
:102CB000756C745D0A000000000000000000000058
:102CC000010203040607080957726F6E67207061DE
:102CD00072616D65746572732076616C75653A20FA
:102CE00066696C65202573206F6E206C696E6520A7
:102CF00025640D0A00232D302B2000686C4C0065E4
:102D00006667454647003031323334353637383917
:102D1000414243444546003031323334353637384A
:102D20003961626364656600100000000000000005
:102D3000017A5200027C0E011B0C0D0010000000F5
:102D4000180000000000000010000000000000005B
:102D50001000000000000000017A5200027C0E0109
:102D60001B0C0D00380000001800000064FAFFFF83
:102D70009E00000000510E10840485038602870126
:102D80005BC7C6C5C40E004C0A420B0A420B0E10AC
:102D9000840485038602870151C7C6C5C40E00009E
:082DA000CCF0FF7F01000000F0
:102DA8007856341201FFFFFF100000008400002055
:102DB800000000000024F4000000000000010604E8
:102DC80000FFFFFF280000200000000000000000B6
:102DD80068000000D00000000000000000000000B3
:102DE80000000000000000000000000000000000DB
:102DF80000000000000000000000000000000000CB
:102E080000000000000000000000000000000000BA
:082E180000000000325476981E
:040000050800019559
:00000001FF
