:020000040800F2
:1000000000000120C5020008CB020008CF02000852
:1000100041030008450300088D03000800000000AC
:10002000000000000000000000000000D5030008F0
:10003000D903000800000000DD030008E103000808
:10004000F1030008F1030008F1030008F1030008C0
:10005000F1030008F1030008F1030008F1030008B0
:10006000F1030008F1030008F1030008F1030008A0
:10007000F1030008F1030008F1030008F103000890
:10008000F1030008F1030008F1030008000000007C
:10009000000000000000000000000000F103000864
:1000A000F1030008F1030008F1030008F103000860
:1000B000F1030008F1030008F1030008F103000850
:1000C000F1030008F1030008F1030008F51500082A
:1000D000F1030008F1030008F1030008000000002C
:1000E000F1030008F1030008F1030008000000001C
:1000F000000000000000000000000000F103000804
:1001000000000000F1030008F1030008F1030008FB
:1001100000000000000000000000000000000000DF
:10012000F1030008F1030008F1030008F1030008DF
:10013000F1030008000000000000000000000000C3
:10014000000000000000000000000000F1030008B3
:10015000F1030008F1030008F1030008F1030008AF
:10016000F1030008F1030008000000000000000097
:10017000000000000000000000000000000000007F
:1001800000000000F1030008000000000000000073
:10019000F103000800B583B000F01AFF384B394A6C
:1001A0001360394A1360394906E052F8041B43F8DA
:1001B000041B9842F9D86146354B994205D20A682A
:1001C0004B6801F10C0C8868F3E72E4B1A68314B31
:1001D0009A4200D0FEE72C4B1A682F4B9A42F9D175
:1001E000274B2E4A13602E4A13602E4A00E0024627
:1001F0002D4B9A4209D2104650F8083B516899425B
:10020000F5D9002243F8042BF9E7244B1B6813B9F6
:10021000234B1B6803B1FEE701F07AFA694601A897
:1002200000F0F4FD214C224BE41AA410002504E058
:100230001F4B53F8253098470135AC42F8DC1D4C74
:100240001D4BE41AA410002504E01B4B53F8253085
:1002500098470135AC42F8DC0099019801F06AFA40
:100260000546164C164BE41AA41004E0013C144B4E
:1002700053F824309847002CF8DC284600F0A2FD03
:10028000BABADECA0000002068000020F4030008AB
:100290000C04000878563412325476986C00002012
:1002A000100100200C0400081C0400081C040008B5
:1002B0001C0400081C0400081C0400081C0400089E
:1002C0001C04000808B5FFF765FF00BEFEE71EF03E
:1002D000040F0CBFEFF30880EFF309807146414A29
:1002E00010472DE9F04182B004460D46124B5F6B7A
:1002F000D3F838809E6A1B6B13F0020F03D00E4BAD
:10030000DB6A002B0BDB0D4800F0BEFD0095434679
:100310003A463146204600F0D1FD00BEFEE74BF6DE
:10032000AB6100F045FE0028EDD0034B4FF00042DA
:10033000DA6202B0BDE8F08100ED00E05C26000862
:1003400000BEFEE71EF0040F0CBFEFF30880EFF3D2
:1003500009807146244A10472DE9F04182B00446D5
:100360000D46084B5F6BD3F838809E6A064800F054
:100370008BFD009543463A463146204600F09EFDEF
:1003800000BEFEE700ED00E06C2600081EF0040F42
:100390000CBFEFF30880EFF309807146134A104752
:1003A0002DE9F04182B004460D46084B5F6BD3F84F
:1003B00038809E6A064800F067FD009543463A463D
:1003C0003146204600F07AFD00BEFEE700ED00E079
:1003D0007826000800BEFEE700BEFEE700BEFEE78E
:1003E00070470000E302000859030008A103000859
:0403F00000BEFEE766
:1003F40078C70008000000206C00002078C70008BF
:1004040000000010000000106C0000201401002007
:080414000000001000000010C0
:1004200010B504460E4B1A784FF47A73B3FBF2F30F
:100430000C4A1068B0FBF3F000F0AEF868B90F2C6E
:1004400001D901200AE0002221464FF0FF3000F0E0
:100450007FF8054B1C60002000E0012010BD00BFAC
:1004600004000020140000200800002008B50B4BF9
:100470001A6842F400721A601A6842F480621A60C4
:100480001A6842F480721A60032000F043F80F20CB
:10049000FFF7C6FF01F0BCF9002008BD003C024098
:1004A000014B1868704700BF70000020002808DB6F
:1004B0000901C9B200F1604000F5614080F8001305
:1004C000704700F00F000901C9B2014B1954704781
:1004D00014ED00E000B500F00700C0F1070CBCF11E
:1004E000040F28BF4FF0040C031D062B0FD9C31EA9
:1004F0004FF0FF3E0EFA0CF021EA000199400EFA8F
:1005000003FE22EA0E0241EA02005DF804FB00232A
:10051000EEE7000010B50446C31E042B0FD80A4AAC
:10052000D36823F4E0631B041B0C240204F4E0648E
:10053000234343F0BF6343F40033D36010BD9221E3
:10054000024801F0EDF8EAE700ED00E0DC240008E5
:1005500070B506460C4615460F2A0ED80F2C11D83A
:100560000B4BD8682A462146C0F30220FFF7B2FFA2
:1005700001463046FFF79AFF70BDAA21054801F0F9
:10058000CFF8EBE7AB21034801F0CAF8E8E700BF7A
:1005900000ED00E0DC2400080138B0F1807F0BD2D0
:1005A0004FF0E0235861054AF02182F82310002023
:1005B000986107221A6170470120704700ED00E042
:1005C00008B5042807D068B94FF0E022136923F07A
:1005D0000403136108BD4FF0E022136943F00403E4
:1005E0001361F7E740F2C911014801F099F8EBE710
:1005F000DC240008002800F05B8270B582B004465D
:1006000003680F2B39D8236813F0010F4DD06368AE
:100610002BB1B3F5803F02D0B3F5A02F32D1804B80
:100620009B6803F00C03042B36D07D4B9B6803F0D2
:100630000C03082B2BD06368B3F5803F5FD0B3F574
:10064000A02F62D0764B1A6822F480321A601A68A2
:1006500022F480221A606368002B60D0FFF720FF2D
:1006600005466F4B1B6813F4003F1ED1FFF718FFC0
:10067000401B6428F5D9032021E2E821694801F0F4
:100680004FF8C0E7ED21674801F04AF8C7E7644B2F
:100690005B6813F4800FCED0614B1B6813F4003FEE
:1006A00003D06368002B00F00582236813F0020F6B
:1006B00066D0E368012B41D823691F2B44D8584BDF
:1006C0009B6813F00C0F4AD0554B9B6803F00C034A
:1006D000082B3FD0E368002B77D0534B01221A60E0
:1006E000FFF7DEFE05464E4B1B6813F0020F63D189
:1006F000FFF7D6FE401B0228F5D90320DFE1484A68
:10070000136843F480331360A5E7454B1A6842F43D
:1007100080221A601A6842F480321A609BE7FFF761
:10072000BFFE05463E4B1B6813F4003FBDD0FFF7EC
:10073000B7FE401B6428F5D90320C0E140F21F1129
:10074000384800F0EDFFB7E74FF49071354800F0FE
:10075000E7FFB4E7324B5B6813F4800FBAD1304B3C
:100760001B6813F0020F03D0E368012B40F0A48153
:100770002B4A136823F0F803216943EAC10313608D
:10078000236813F0080F51D06369012B2FD86369D8
:100790009BB3254B0122C3F8802EFFF781FE05464F
:1007A0001F4B5B6F13F0020F40D1FFF779FE401B28
:1007B0000228F5D9032082E1194A136823F0F803CF
:1007C000216943EAC1031360DAE7174B00221A607C
:1007D000FFF766FE0546124B1B6813F0020FCFD0E1
:1007E000FFF75EFE401B0228F5D9032067E14FF4B6
:1007F000B0710C4800F094FFC9E70B4B0022C3F81E
:10080000802EFFF74DFE0546054B5B6F13F0020F80
:100810000CD0FFF745FE401B0228F5D903204EE11E
:10082000003802401025000800004742236813F0FA
:10083000040F7CD0A368012B01D9052B38D1A44B20
:100840001B6C13F0805F39D100230193A04B1A6C0D
:1008500042F080521A641B6C03F080530193019B99
:1008600001259C4B1B6813F4807F29D0A368012BC2
:100870003AD0052B3ED0964B1A6F22F001021A6730
:100880001A6F22F004021A67A368002B3CD0FFF70E
:1008900007FE06468E4B1B6F13F0020F45D1FFF784
:1008A000FFFD801B41F288339842F3D9032006E113
:1008B0004FF4C671884800F033FFC0E70025D0E749
:1008C000844A136843F480731360FFF7E9FD06461A
:1008D000804B1B6813F4807FC8D1FFF7E1FD801BBC
:1008E0000228F5D90320EAE0794A136F43F00103A7
:1008F0001367C9E7764B1A6F42F004021A671A6F42
:1009000042F001021A67BFE7FFF7CAFD0646704BC7
:100910001B6F13F0020F08D0FFF7C2FD801B41F2DE
:1009200088339842F3D90320C9E0002D3ED1A36952
:10093000022B41D8A369002B00F0C080644A926862
:1009400002F00C02082A00F09380022B7CD1E369AC
:1009500013B1B3F5800F35D1236A3F2B38D8636AC2
:10096000323BB3F5BF7F39D8A36A022B08D0082BDE
:100970003AD84FF4A87222FA03F313F0010F33D0E0
:10098000E36A023B0D2B35D8544B00221A66FFF761
:1009900087FD05464E4B1B6813F0007F30D0FFF7F4
:1009A0007FFD401B0228F5D9032088E0484A136CDC
:1009B00023F080531364BAE740F2CF11464800F0A9
:1009C000AFFEB7E74FF4EC71434800F0A9FEC3E770
:1009D00040F2D911404800F0A3FEC0E74FF4ED719A
:1009E0003D4800F09DFEBFE740F2DB113A4800F0C1
:1009F00097FEC5E74FF4EE71374800F091FEC3E76C
:100A0000E369226A1343626A43EA8213A26A5208C4
:100A1000013A43EA0243E26A43EA02632C4A536022
:100A20002E4B01221A66FFF73BFD0446284B1B683C
:100A300013F0007F06D1FFF733FD001B0228F5D924
:100A400003203CE000203AE0244B00221A66FFF726
:100A500027FD04461E4B1B6813F0007F06D0FFF7EE
:100A60001FFD001B0228F5D9032028E0002026E006
:100A7000012B26D0164B5B6803F48001E26991429A
:100A800021D103F03F02216A8A421ED1616A47F6F2
:100A9000C0721A408A4223D103F44032A16A8A42CA
:100AA00020D103F07063E26A93421DD1002006E07A
:100AB00001207047012002E0012000E0002002B088
:100AC00070BD0120FBE70120F9E70120F7E700BF37
:100AD0000038024000700040102500080000474226
:100AE0000120ECE70120EAE70120E8E708B5264B02
:100AF0009B6803F00C03042B41D0082B41D1224BFF
:100B00005A6802F03F025B6813F4800F12D01E4B4C
:100B10005968C1F388111D480023A1FB000100F0B2
:100B200079FE194B5B68C3F3014301335B00B0FBF3
:100B3000F3F027E0144B5868C0F388104FEA401CCC
:100B4000BCEB000C6EEB0E0E4FEA8E1343EA9C6377
:100B50004FEA8C11B1EB0C0163EB0E03DB0043EAAF
:100B60005173C90011EB000C43F1000399020023FB
:100B70004FEA8C2041EA9C5100F04CFED1E703483B
:100B800000E0034808BD00BF0038024040787D0106
:100B90000024F400002800F0FA8070B50D460446E9
:100BA0000368013B0E2B30D8072D34D87C4B1B68D3
:100BB00003F00F03AB4208D2EBB2794A137013680B
:100BC00003F00F03AB4240F0E480236813F0020F00
:100BD00032D013F0040F04D0724A936843F4E05308
:100BE0009360236813F0080F04D06E4A936843F4AF
:100BF00060439360A368C3B1C02B16D049D8A02B23
:100C000013D00ED9B02B10D049E040F251216648E4
:100C100000F086FDC8E740F25221634800F080FDF5
:100C2000C4E7802B01D0902B39D15E4A936823F022
:100C3000F003A1680B439360236813F0010F48D0C1
:100C40006368032B31D86368012B34D09A1E012AC4
:100C500038D9544A126812F0020F00F09C805149B2
:100C60008A6822F0030213438B60FFF719FC0646E3
:100C70004C4B9B6803F00C036268B3EB820F28D0E7
:100C8000FFF70EFC801B41F288339842F0D9032015
:100C900070E0E02BC9D0F02BC7D0D02BC5D040F2EC
:100CA0007521414800F03CFDBFE74FF41F713E48FD
:100CB00000F036FDC7E73B4A126812F4003FCED180
:100CC000012057E0374A126812F0007FC7D1012097
:100CD00050E0334B1B6803F00F03AB4207D9EAB275
:100CE0002F4B1A701B6803F00F03AB4255D12368DA
:100CF00013F0040F14D0E3685BB1B3F5805F08D044
:100D0000B3F5A05F05D0B3F5C05F02D0B3F5E05FE7
:100D100031D1244A936823F4E053E1680B43936094
:100D2000236813F0080F15D023695BB1B3F5805F1A
:100D300008D0B3F5A05F05D0B3F5C05F02D0B3F51E
:100D4000E05F1ED1174A936823F46043216943EAA8
:100D5000C1039360FFF7CAFE124B9B68C3F30313F2
:100D6000124AD35CD840124B1860124B1868FFF738
:100D700057FB002070BD40F2BA210B4800F0D0FCB8
:100D8000C7E740F2C121084800F0CAFCDAE70120B9
:100D900070470120EEE70120ECE70120EAE700BF01
:100DA000003C024000380240102500088826000858
:100DB0001400002008000020014B1868704700BF95
:100DC00014000020FEE7000008B503460C4A126834
:100DD0005AB10B4A1068033323F003030344094A52
:100DE000934206D8064A136008BD054A06491160B9
:100DF000EFE700F0C1FE0C2303604FF0FF30F3E794
:100E00007400002000FC0020140100200123036076
:100E1000014B0B60704700BF0C0000202DE9F04330
:100E200085B004460F4643563BBB04252846214661
:100E3000ABBE0546384605B0BDE8F08314F901CBDA
:100E400003F110026A4402F810CC0133AB42F5D32F
:100E500010336B44002203F8102C4FF00408E946CD
:100E600040464946ABBE8046761B002EE2D0354652
:100E7000102E28BF10250023E8E70E46F5E708B539
:100E8000FFF7CCFF08BD00000FB400B583B004AB82
:100E900053F8042B01938021074800F05FFE0028DF
:100EA00004DC03B05DF804EB04B07047014602486F
:100EB000FFF7E5FFF5E700BF80000020F8B5044626
:100EC0000D4617461E462748FFF7DEFF21682648D5
:100ED000FFF7DAFF61682548FFF7D6FFA1682448CD
:100EE000FFF7D2FFE1682348FFF7CEFF21692248D0
:100EF000FFF7CAFF61692148FFF7C6FFA1692048D3
:100F0000FFF7C2FFE1691F48FFF7BEFF1E48FFF76A
:100F1000BBFF29461D48FFF7B7FF1D4CE16A1D487E
:100F2000FFF7B2FF216B1C48FFF7AEFFE16B1B48D8
:100F3000FFF7AAFF15F0800F0AD115F4004F0CD16E
:100F40001748FFF7A1FF06991648FFF79DFFF8BD68
:100F500039461548FFF798FFEFE731461348FFF78A
:100F600093FFEDE7402500085025000860250008A4
:100F7000702500088025000890250008A02500089D
:100F8000B0250008C0250008D0250008DC25000891
:100F900000ED00E0EC250008FC2500080C26000808
:100FA0003C260008442600081C2600082C260008C1
:100FB00083691A888A4201D0002070470268033A88
:100FC000012A01D900207047023383610120704754
:100FD00008B500F009F8024A024B9A6008BD00BF4C
:100FE0000000000800ED00E0024B4FF000629A6044
:100FF000704700BF00ED00E0224B9B6803F00C033C
:10100000042B14D0082B16D01BB11F4B1F4A1A609B
:1010100002E01D4B1D4A1A601A4B9B68C3F3031371
:101020001B4AD15C184A1368CB4013607047164BBB
:10103000184A1A60F0E7134B59685A6802F03F02E9
:1010400011F4800F13D0134BB3FBF2F30D4A526827
:10105000C2F3881202FB03F30A4A5268C2F3014248
:1010600001325200B3FBF2F3074A1360D4E7074B97
:10107000B3FBF2F3034A5268C2F3881202FB03F394
:10108000EAE700BF00380240140000200024F4000A
:101090008826000840787D0110B504460122092108
:1010A000002000F08FF9204600F08AFA10BD10B53C
:1010B000044600220921104600F084F9204600F081
:1010C0007FFA10BD08B501220821002000F07AF94E
:1010D000642000F0ACFA00220821104600F072F9FA
:1010E000012000F0A4FA01220821002000F06AF992
:1010F000642000F09CFA00220821104600F062F9FA
:10110000642000F094FA01220821002000F05AF92E
:10111000782000F09CFA08BD08B5FFF7D3FF112036
:10112000FFF7C5FF962000F092FA3A20FFF7BFFFC5
:101130000520FFF7B1FF2920FFF7B9FF012000F0DC
:1011400086FA08BD38B505462A20FFF7B0FF002013
:10115000FFF7A2FF0020FFF79FFF0020FFF79CFF93
:101160007F20FFF799FF2B20FFF7A1FF0020FFF75B
:1011700093FF0020FFF790FF0020FFF78DFF9F20D7
:10118000FFF78AFF2C20FFF792FF00240AE035F8D2
:101190001400000AFFF780FF15F81400FFF77CFF2A
:1011A0000134A4B2B4F5A04FF1D338BD38B505462B
:1011B0002A20FFF77CFF0020FFF76EFF0020FFF7DB
:1011C0006BFF0020FFF768FF7F20FFF765FF2B20F4
:1011D000FFF76DFF0020FFF75FFF0020FFF75CFFC8
:1011E0000020FFF759FF9F20FFF756FF2C20FFF745
:1011F0005EFF002407E0280AFFF74EFFE8B2FFF782
:101200004BFF0134A4B2B4F5A04FF4D338BD2DE99F
:10121000F8438146884617461C46BDF820500E1AF2
:101220009B1A16FB03F6B6B22A20FFF740FF0020F8
:10123000FFF732FF4846FFF72FFF0020FFF72CFF94
:101240004046FFF729FF2B20FFF731FF0020FFF773
:1012500023FF3846FFF720FF0020FFF71DFF204641
:10126000FFF71AFF2C20FFF722FF002407E0280ACF
:10127000FFF712FFE8B2FFF70FFF0134A4B2B44248
:10128000F5D3BDE8F8830000034620B9A1F10D00B5
:10129000C0B202280DD9012B07D010B4012B15D0F4
:1012A000022B1FD033B110BC7047C81EC0B201283A
:1012B000F3D87047114C236849000320884023EA83
:1012C000000302FA01F10B432360ECE70C4C2368A6
:1012D00049000320884023EA000302FA01F10B438E
:1012E0002360E0E7074C236849000320884023EA95
:1012F00000038A4013432360D5E700BF000002408B
:10130000000402400008024010B4044620B9A1F1D4
:101310000D00C0B2022806D9012C06D0012C1FD026
:10132000022C33D034B110BC7047C81EC0B20128A3
:10133000F4D8F8E7204C60684FF0010C0CFA01FC7F
:1013400020EA0C008A4002436260A2684900032040
:10135000884022EA000203FA01F10A43A260E2E7B0
:10136000164C60684FF0010C0CFA01FC20EA0C00EE
:101370008A4002436260A26849000320884022EA52
:10138000000203FA01F10A43A260CCE70C4C60684A
:101390004FF0010C0CFA01FC20EA0C008A400243D9
:1013A0006260A26849000320884022EA00028B4064
:1013B0001343A360B7E700BF0000024000040240EF
:1013C00000080240034620B9A1F10D00C0B2022876
:1013D0000DD9012B07D010B4012B13D0022B1BD039
:1013E00033B110BC7047C81EC0B20128F3D8704793
:1013F0000E4C63690120884023EA00038A401A43A7
:101400006261EEE70A4C63690120884023EA000329
:101410008A401A436261E4E7064C63690120884010
:1014200023EA00038A4013436361DAE700000240C5
:101430000004024000080240034620B9A1F10D005B
:10144000C0B2022806D9012B05D0012B2BD0022BCC
:101450004CD02BB17047C81EC0B20128F5D8F9E7AF
:1014600007290FD8324B186A89004FF00F0C0CFA7D
:1014700001FC20EA0C001862186A02FA01F101432B
:10148000196270472A4B586A083989004FF00F0CCF
:101490000CFA01FC20EA0C005862586A02FA01F1C9
:1014A00001435962704707290FD8224B186A8900F7
:1014B0004FF00F0C0CFA01FC20EA0C001862186ABD
:1014C00002FA01F10143196270471A4B586A083950
:1014D00089004FF00F0C0CFA01FC20EA0C00586256
:1014E000586A02FA01F101435962704707290FD87F
:1014F000114B186A89004FF00F0C0CFA01FC20EA1E
:101500000C001862186A02FA01F10143196270476F
:10151000094B586A083989004FF00F0C0CFA01FC8E
:1015200020EA0C005862586A8A4002435A6291E7E6
:10153000000002400004024000080240074A13680D
:1015400043F001031360054B1B6813F0020FFAD040
:10155000024A936823F00303936070470038024007
:1015600003281ED8DFE800F0020910170D48036CAD
:1015700001228A401343036470470A48436C0122E6
:101580008A401343436470470648036B01228A4034
:101590001343036370470348436B01228A4013439C
:1015A0004363704700380240044B40F24F321A60E8
:1015B0005A6822F0C0025A60704700BF00300140F4
:1015C00010B50446002204211046FFF7FBFE084B2D
:1015D000DC60074B9B6813F0800FFAD101220421D5
:1015E0000020FFF7EFFE024BD868C0B210BD00BF6D
:1015F0000030014008B5034B1B6803B108BD984794
:10160000FCE700BF000100204FF0E022136943F027
:1016100004031361704720F07F404FF0E0235861CE
:1016200000229A611A6942F001021A61704708B5F6
:101630000001FFF7F0FF4FF0E0231B6913F4803F38
:10164000F9D04FF0E02300225A619A6108BD08B535
:101650004FF47A5303FB00F0FFF7DDFF4FF0E02378
:101660001B6913F4803FF9D04FF0E02300225A6148
:101670009A6108BD70B594B000240194214B1A6C96
:1016800042F080521A641B6C03F080530193019B5B
:1016900002941D4B1A6842F440421A601B6803F41E
:1016A00040430293029B012308934FF48033099334
:1016B0004FF480030F93192310934FF4A8731193E1
:1016C000042612960723139302250E9508A8FEF709
:1016D00091FF0F230393049505944FF480530693D1
:1016E0000794294603A8FFF755FAFFF765FB074B58
:1016F000A3FB00308009FEF74FFF3046FEF760FF86
:1017000014B070BD0038024000700040D34D62102C
:1017100008B5FEF7ABFEFFF7ADFFFFF76DFC08BDA8
:1017200008B50A4601460248FFF7AEFBFEE700BFD8
:1017300098C6000800B583B0FFF700FF0021022023
:10174000FFF70EFF0C210120FFF70AFF01220821FD
:101750000020FFF799FD0223002208211046FFF721
:10176000D3FD012209210020FFF78EFD0223002274
:1017700009211046FFF7C8FD022205210020FFF7CE
:1017800083FD0323002205211046FFF7BDFD05223E
:1017900011460020FFF750FE022207210020FFF72C
:1017A00073FD0323002207211046FFF7ADFD05223C
:1017B00007210020FFF740FE012204210020FFF74F
:1017C00063FD0223002204211046FFF79DFDFFF771
:1017D0001BFFFFF7E9FEFFF79FFC0C48FFF7B2FC89
:1017E0004FF47A70FFF733FF4FF2F000FFF7DEFCA3
:1017F0004FF47A70FFF72BFF00230093642332220B
:1018000019461046FFF703FDFEE700BF98260008C3
:101810007047000053B94AB9002908BF00281CBF0F
:101820004FF0FF314FF0FF3000F06AB9ADF1080C16
:101830006DE904CE00F006F8DDF804E0DDE90223EE
:1018400004B070472DE9F047089D0C46002B4ED19F
:1018500094468C458646B2FA82F262D94AB1C2F108
:101860002003914020FA03F30CFA02FC194300FA1A
:1018700002FE4FEA1C471FFA8CF6B1FBF7F44FEA61
:101880001E4307FB141143EA014304FB06F199428E
:101890000AD91CEB030304F1FF3080F01281994256
:1018A00040F20F81023C6344591A1FFA8EF3B1FBD8
:1018B000F7F007FB101143EA014300FB06F69E42D6
:1018C0000AD91CEB030300F1FF3180F0FC809E423B
:1018D00040F2F980634402389B1B40EA0440002137
:1018E0001DB1D3400022C5E90032BDE8F0878B422C
:1018F00005D90DB1C5E9000100210846F5E7B3FAA5
:1019000083F1002946D1A34202D39042C0F0F08077
:10191000861A64EB03030120002DE6D0C5E90063BD
:10192000E3E7002A40F09080A1EB0C044FEA1C484A
:101930001FFA8CF70121B4FBF8F64FEA1E4308FBAF
:10194000164443EA044307FB06F0984208D91CEB0F
:10195000030306F1FF3402D2984200F2CD802646FE
:101960001C1A1FFA8EF3B4FBF8F008FB104443EA8C
:10197000044300FB07F79F4208D91CEB030300F167
:10198000FF3402D29F4200F2B0802046DB1B40EAC7
:101990000640A5E7C1F120068B4022FA06F71F4357
:1019A00020FA06FC04FA01F343EA0C03F44000FABF
:1019B00001F8380C4FEA1349B4FBF0FE1FFA87FC1C
:1019C00000FB1E4449EA04440EFB0CF9A14502FA4F
:1019D00001F20AD93C190EF1FF3A80F08480A1454A
:1019E00040F28180AEF1020E3C44A4EB09041FFAE0
:1019F00083F9B4FBF0F300FB134449EA044403FB0E
:101A00000CFCA44507D93C1903F1FF3067D2A4456B
:101A100065D9023B3C4443EA0E40A0FB0293A4EB91
:101A20000C049C42CE469C4651D34ED055B1B8EBE7
:101A30000E0364EB0C0404FA06F6CB401E43CC40C4
:101A4000C5E90064002150E7C2F1200320FA03F148
:101A50000CFA02FC24FA03F394400C434FEA1C48AE
:101A600000FA02FE1FFA8CF7B3FBF8F008FB103106
:101A7000230C43EA014300FB07F1994208D91CEB10
:101A8000030300F1FF362CD299422AD9023863446D
:101A90005B1AA4B2B3FBF8F108FB113344EA034428
:101AA00001FB07F3A34208D91CEB040401F1FF3644
:101AB00013D2A34211D902396444E41A41EA004125
:101AC00039E70446F0E6084606E7C845AED2B9EB6A
:101AD000020E63EB070C0138A8E73146EDE7034639
:101AE00099E73046D4E7D6467FE7634402384DE7AE
:101AF0000646234608460FE7023E634430E700BF30
:101B0000704700BF30B51446002C9BB005461A46FE
:101B100005DA8B2303604FF0FF301BB030BD4FF46C
:101B20000273ADF80C3014BF04F1FF332346029367
:101B300005934FF6FF7300910491ADF80E3069469E
:101B40001E9B00F07BF8431CBCBF8B232B60002C3A
:101B5000E3D0009B00221A70DFE7000007B5009376
:101B600013460A46014603480068FFF7CBFF03B05F
:101B70005DF804FB18000020014B1868704700BF97
:101B8000180000202DE9F0478E681F46BE420B6802
:101B900082460C4690462DD8B1F90C2012F4906F75
:101BA00026D06569096905EB4505A3EB010905EB3D
:101BB000D5757B1C4B446D109D4238BF1D465305A7
:101BC00027D5294600F0B6FB064660B321694A4690
:101BD00000F036FBA38923F4906343F08003A381D4
:101BE000266165614E44A5EB09052660A5603E4669
:101BF000BE4200D93E4620683246414600F0B4FA63
:101C0000A3689B1BA3602368334423600020BDE8C6
:101C1000F0872A4600F01AFC06460028E0D1216928
:101C2000504600F01BFB0C23CAF80030A38943F098
:101C30004003A3814FF0FF30E9E700002DE9F04FAA
:101C400098468B891B069DB007460D46144610D555
:101C50000B6973B9402100F06DFB2860286130B931
:101C60000C233B604FF0FF301DB0BDE8F08F4023E8
:101C70006B610023099320238DF82930CDF80C8067
:101C80003023DFF89C818DF82A304FF0010923467C
:101C90009A4613F8012B0AB1252AF9D1BAEB040BA5
:101CA0000BD05B46224629463846FFF76BFF0130D2
:101CB00000F0A780099A5A4409929AF80030002B44
:101CC00000F09F8000234FF0FF32CDE905230AF199
:101CD000010A049307938DF853301A935446052252
:101CE00014F8011B4E4800F05BFA049AD8B9D006EC
:101CF00044BF20238DF85330110744BF2B238DF8A8
:101D000053309AF800302A2B15D0079A54460020F9
:101D10004FF00A0C214611F8013B303B092B4BD9FF
:101D2000B0B1079214E0A0EB080309FA03F31343E0
:101D30000493A246D2E7039B191D1B680391002B55
:101D4000BBBF5B4242F0020207930793B8BF049205
:101D500023782E2B0AD163782A2B32D1039B1A1DAC
:101D60001B68039243EAE37302340593DFF8B4A0DF
:101D700021780322504600F013FA38B1049BA0EBFF
:101D80000A004022824013430134049314F8011BDB
:101D900025488DF82810062200F002FA002836D0D7
:101DA000224B1BBB039B073323F00703083303932A
:101DB000099B334409936AE70CFB02320C4601206D
:101DC000A8E700230134059319464FF00A0C20467A
:101DD00010F8012B303A092A03D9002BC6D00591FF
:101DE000C4E70CFB012104460123F0E703AB009399
:101DF0002A460F4B04A93846AFF30080421C064622
:101E0000D6D1AB895B063FF52DAF09982CE703AB24
:101E100000932A46064B04A9384600F079F8EDE70E
:101E2000C5C60008CBC60008CFC6000800000000E9
:101E3000851B00082DE9F047164698468A680B690D
:101E4000DDF820909342B8BF1346336091F84320E9
:101E500007460C460AB1013333602368990642BF36
:101E6000336802333360256815F0060506D104F1A6
:101E7000190AE36832689B1AAB4226DC94F84330B7
:101E80002268003B18BF012392062BD404F14302C1
:101E900041463846C84701301ED02368226903F006
:101EA0000603042B02BFE5683368ED1AA3680CBF74
:101EB00025EAE57500259342C4BF9B1AED1800265C
:101EC0001A34B5421AD1002008E001235246414697
:101ED0003846C847013003D14FF0FF30BDE8F087E6
:101EE0000135C6E7E1185A1C302081F8430022442E
:101EF00094F8451082F843100233C7E701232246C5
:101F000041463846C8470130E6D00136D9E70000DF
:101F10002DE9FF470F7E0C9E782F914680460C4698
:101F20009A4601F1430207D8622F0AD8002F00F029
:101F3000DD80582F00F0C38004F1420684F842701F
:101F40003AE0A7F16303152BF6D801A151F823F06D
:101F5000A91F0008BD1F0008391F0008391F00080D
:101F6000391F0008391F0008BD1F0008391F00086D
:101F7000391F0008391F0008391F0008D320000846
:101F80004B2000088B200008391F0008391F00086B
:101F9000F5200008391F00084B200008391F0008F1
:101FA000391F00089320000833681A1D1B6832602F
:101FB00004F1420684F842300123A8E03168236826
:101FC000081D30601E0601D50D6803E05D06FBD5D7
:101FD000B1F900506168002D78DA2D20002984F8CD
:101FE0004300A1602DDA5E486D420A231646B5FB18
:101FF000F3F103FB1157C75D06F8017D2F46BB4285
:102000000D46F4D9082B0BD12368DF0708D52369C7
:1020100061689942DEBF302306F8013C06F1FF36C5
:10202000921B2261CDF800A04B4603AA21464046F0
:10203000FFF700FF01306FD14FF0FF3004B0BDE873
:10204000F08723F004032360CDE721683368080696
:1020500053F8045B02D4490648BFADB26F2F404825
:10206000336014BF0A230823002184F843106668F4
:10207000A660002EBADB216821F004012160002D4A
:10208000B4D1002EB2D11646BCE7236843F020033A
:1020900023603448782784F84570236831681F0628
:1020A00051F8045B02D45F0648BFADB23160D90776
:1020B00044BF43F0200323601DB11023D4E7284818
:1020C000E9E7236823F020032360F6E724480A2386
:1020D000CDE7336825686169181D30602E061B68DE
:1020E00001D5196002E06806FBD519800023236141
:1020F000164697E733681A1D32601E686268002131
:10210000304600F04DF808B1801B606063682361C1
:10211000002384F8433085E7236932464946404628
:10212000D047013088D023689B0714D4E068039B14
:102130009842B8BF184681E70123324649464046D7
:10214000D04701303FF478AF0135E36803995B1A5B
:10215000AB42F1DCEAE7002504F11906F5E700BF20
:10216000D6C60008E7C60008884210B501EB020495
:1021700002D98442234607D8431EA14208D011F851
:10218000012B03F8012FF8E7024401468A4200D1EF
:1021900010BD13F8014D02F8014DF7E700000000F3
:1021A00001F0FF01102A2BDB10F0070F08D010F808
:1021B000013B013A8B422DD010F0070F42B3F6D10C
:1021C000F0B441EA012141EA014122F007047FF025
:1021D00000070023F0E80256083C85EA010586EA7C
:1021E000010685FA47F5A3FA87F586FA47F6A5FAB8
:1021F00087F68EB9EED1F0BC01F0FF0102F00702C4
:1022000032B110F8013B013A83EA010313B1F8D16E
:102210000020704701387047002D06BF354603384F
:10222000073815F0010F07D1013015F4807F02BF88
:10223000013015F4C03F0130F0BC0138704700BFD9
:102240000A44914200F1FF3300D1704710B511F8F4
:10225000014B03F8014F9142F9D110BD38B5054645
:10226000002941D051F8043C0C1F002BB8BFE418E2
:1022700000F0E0F81D4A136833B963601460284623
:10228000BDE8384000F0DCB8A34208D92068211826
:102290008B4201BF19685B6809182160EDE71A4697
:1022A0005B680BB1A342FAD911685018A0420BD158
:1022B00020680144501883421160E0D118685B68BF
:1022C000536008441060DAE702D90C232B60D6E78C
:1022D000206821188B4204BF19685B68636004BFE3
:1022E000091821605460CAE738BD00BF080100200A
:1022F00070B50F4E0C463168054611B900F0D4F8A0
:1023000030602146284600F0CFF8431C03D14FF03F
:10231000FF34204670BDC41C24F00304A042F8D052
:10232000211A284600F0C0F80130F2D1EFE700BFD3
:10233000040100202DE9F843CD1C25F003050835E4
:102340000C2D38BF0C25002D064601DBA94204D90F
:102350000C2333600020BDE8F883DFF8D48000F060
:1023600069F8D8F800301C4644BB29463046FFF7D0
:10237000BFFF431C044658D1D8F800402746002F21
:1023800043D1002C4BD023683946304604EB030977
:1023900000F08AF8814542D121686D1A29463046FD
:1023A000FFF7A6FF01303AD023682B442360D8F80A
:1023B00000305A6862BBC8F800700FE02268521BF8
:1023C00020D40B2A17D96119A342256018BF596080
:1023D000636808BFC8F8001062514B60304600F0D7
:1023E0002FF804F10B00231D20F00700C21A1CBFB8
:1023F0001B1AA350AFE76268A3420CBFC8F80020C5
:102400005A60EBE723466468AEE73C467F68B6E770
:102410001A465B68A342FBD100235360DEE70C231E
:102420003360304600F00CF894E70560D6E700BF53
:1024300008010020014800F047B800BF0C0100204F
:10244000014800F042B800BF0C0100202DE9F04126
:10245000804615460C4621B9BDE8F0411146FFF70C
:1024600069BF2AB9FFF7FAFE00242046BDE8F081D3
:1024700000F02CF88542064602D8B5EB500FF4D890
:1024800029464046FFF756FF07460028ECD0B542E4
:102490002A46214628BF3246FFF7D2FE2146404653
:1024A000FFF7DCFE3C46E0E738B5064D0023044666
:1024B00008462B60FEF788FC431C02D12B6803B151
:1024C000236038BD7C0000207047704751F8043C01
:1024D000181F002BBCBF0B58C01870472E2E2F732F
:1024E000797374656D2F7372632F73746D333266F5
:1024F000342D68616C2F73746D3332663478785F75
:1025000068616C5F636F727465782E630000000011
:102510002E2E2F73797374656D2F7372632F7374FE
:102520006D333266342D68616C2F73746D3332668F
:102530003478785F68616C5F7263632E63000000BB
:10254000537461636B206672616D653A0A00000026
:10255000205230203D2020253038580A000000004D
:10256000205231203D2020253038580A000000003C
:10257000205232203D2020253038580A000000002B
:10258000205233203D2020253038580A000000001A
:1025900020523132203D20253038580A00000000FA
:1025A000204C52203D2020253038580A00000000E1
:1025B000205043203D2020253038580A00000000DC
:1025C00020505352203D20253038580A000000008A
:1025D0004653522F4641523A0A00000020434653C8
:1025E00052203D2020253038580A0000204846530C
:1025F00052203D2020253038580A00002044465300
:1026000052203D2020253038580A000020414653F2
:1026100052203D2020253038580A0000204D4D46DC
:102620004152203D20253038580A000020424641C2
:1026300052203D2020253038580A00004D69736330
:102640000A000000204C522F4558435F5245545514
:10265000524E3D20253038580A0000005B48617218
:10266000644661756C745D0A000000005B4275731E
:102670004661756C745D0A005B5573616765466100
:10268000756C745D0A00000000000000000000008E
:1026900001020304060708098B9DEDA50DAE2DAEC2
:1026A0000DA62DAE0CA60CA68A95AB9DCB9D8A954A
:1026B000ECA54DAE2DAE0CA66EB6AEB64DAE2DAEA3
:1026C000EC9DAB95498DAA952CA64DAEAB952DA64C
:1026D0006EAE6A8D2DA64DA6CB9D2DAE6EB6ECA529
:1026E0006EB60DAE0DAE6EBEAB9DECA5CBA5AB959B
:1026F0000CA66A8D498DCB95AA958A954DA66DA697
:102700002C9E8EAE8EAE2CA66DAE2CA60B9E8EAEE3
:10271000CEB66DA68DAE6DA60C9E2CA62CA60C9EDC
:10272000EB95CA8D4DA62C9E2DA68EAEAFB64EAEA5
:10273000CC9D2DAEAFB64DAE0CA64DAE4DA6EB9DCD
:10274000EB9D8EAEAEB62CA60C9EEB9D2CA64DA698
:102750008EAE6DAE8EAE6EAE6FAEB0B6AFB68FAEA5
:102760006EAE8FAE0DA62EA66EAE8FAE4EA62DA669
:10277000EC9D4EA62EA62DA6ED9D0EA6CC9D0DA6DB
:10278000ED9D0DA62EA6EC9D0DA68FB64EAEEC9D32
:10279000AC956FAE8FAE4EA6CCA5CCA5AB9DECA5EF
:1027A000CCA52DAEECA5CC9DCC9D8A95AB9DCB9DAB
:1027B000AB9DAB9D8A95AA950CA66DAECB9D0CA644
:1027C0000CA60CA62CA60C9E0C9E2DA6AB95AB952C
:1027D000CB956A8D2DA6AB95CB9DAB9DECA5ECA5BD
:1027E0006EB6ABA56A95CBA54995AB9DAB9D8A9579
:1027F000AA952CA62CA6EC9DECA5CB952DA68EAE6D
:102800006DAE4DA62C9E4DA62CA62CA62CA62CA6B5
:102810004CA66DAE8EAE4DA6EB9DEB9D2CA62CA6C8
:102820004DA62C9E4DA60C9E0C9EAB95CC9D6EB6D7
:102830004EAEAB9DEC9D6EAE6EAE6DAE4DA6EC9DFC
:10284000EB9D2CA62CA6CB952CA62CA62CA60C9EDC
:102850002DA64DA68FAEAFB68FB64EAE0D9E2DA651
:102860008FAED0BE4EAE4EA64EAE2DA6EC9D2DA682
:102870006EAEAFB64EA60D9ECD950D9E2EA62EA683
:102880002EA66FAE4EAE4EAE6EAEB0B66FAE2EA6EC
:10289000ED9D0DA60E9ECD9D8B95AB9DEDA52DAE10
:1028A0004EB62EAE0CA6CC9DECA50DA6ECA5ECA5C7
:1028B0002DA68A95E8848A95CB9D0CA6CB9DEB9D91
:1028C000CB9DECA50C9ECB95CB9D4DA62DA68B95B7
:1028D0006A8D6A8D6EAE4DAE2DA6ECA52DAE0DAEF9
:1028E0004EB6AB9D8B9D0DAE4A958B958B958B957A
:1028F000EC9D2DA62DA62CA60CA6EB9D0CA66DAED0
:102900006DAEEB9DAA950C9E4DA64DA66DAE2CA668
:102910000C9E2C9E4DA66DA60CA60C9E2CA62C9E45
:102920004DA60C9EEB9D0C9EAB95AB95CB954EAEFC
:102930004DAEAB95AB952CA60C9E2CA64DA64DA6E8
:102940002CA60C9EEB9DAA952CA62DA62DA6EC9D43
:102950002DA62DA64EA66EAE4EAE2EA62DA66EAE02
:102960008FAE8FAE2DA66EAE8EAE6EAE4EA6AFB64D
:102970008FAE8FAE4EA64EA62EA62EA66FAEAC95EF
:10298000CC9D2EA6ED9D6EAE0DA62EA6ED9D0DA6A0
:10299000ED9DED9D2EA62EA68B95AB9D2DAEEDA5A6
:1029A0002DAEAB9DECA5ECA5AB9D6EAE4DAEAB9D3B
:1029B000EC9DECA58A95AB9D0CA6CB9D2DA6CB9D41
:1029C000AA950CA68A95AA95CB9D0C9EEC9DAB95DD
:1029D000AB95CB9DCB95CC9DEC9DCC9DECA5AB9DBB
:1029E000CB9DAB95AB9DECA5AB9DECA5CC9D4A8D4D
:1029F0004DA6AB956A8DCB950C9EEC9D0CA62DA695
:102A00002CA60C9EEB9DEB9D4DA6EC9D2CA60CA63A
:102A10002DA68EAE4DA62DA62DA62CA66DAE0C9E77
:102A20000C9EAA958A8D0C9ECB952DA64EAE2DA6FA
:102A3000EC9DEC9D0C9EEC9DEB9D0B9E2CA60B9EA5
:102A4000CB95EB9D2DA64DAE0C9E2DA62DA60D9ED5
:102A50006EAE4EA62DA62EA62EA66EAEAFB68FAE2D
:102A60004DA60DA60C9E4EAE4DA62DA64EA68FAE23
:102A70008FAE4EA64EA68FAE4EAE2EA64EA66B8D38
:102A8000CC9D4EAE4EAEB0B68FB68FB62DA64EAE26
:102A90002EA6ED9D2EA64EA6EDA5CCA5CCA5CCA52B
:102AA000CC9D8B9DCB9DECA52DAE6A95AB9DECA5E9
:102AB0008A95AB9D0CA62DAECB9D8A95EC9D8A95F3
:102AC0008A95EC9DAB95EC9D0CA62DA6AB95AA9591
:102AD000CB950DA68A950DA66EAE2DA62DA6CB9DE7
:102AE000CC9DCC9D8B95298D8B954DA62DA66A8D61
:102AF0000D9E0C9EEC95EC95EC9DAB95EC9D0C9E83
:102B0000CB950C9E4CA6EB9DEB9D0CA64DAE0C9E62
:102B10000C9E8FB64EA6CC9D0CA60C9E4DA60CA668
:102B20002CA6AB956A8DEB9D2DA62DA64DA64DAE80
:102B3000EC9D0C9E6EAE4DA60C9E2CA62CA6EB9D7D
:102B4000AB950C9E4DAE6EAE2DA60DA6EC9DED9DEB
:102B50008FB66FAE6FAE8FAE8FB66EAE6EAE2DA669
:102B60000CA62DA62DA62DA62DA6CB9DEC9D2DA6A3
:102B70006EAE2DA60D9E0D9EED9D0DA6ED9D8B9529
:102B80002DA66FAE8FB68FB64EAE4EAE0DA62DA64D
:102B90002EA6ED9D2EA60DA62EAECCA5298DCCA5DC
:102BA000AC9D4EAEECA52DAE2DAE6A95CB9D0CA680
:102BB000CB9DCB9D0CA60CA68A950CA62DA62CA66B
:102BC000EC9DAB952CA64DAEEC9D2DA6AB958A8DBC
:102BD0008A950CA6AB956EAE2DA6CB9DEC9DEC9D7B
:102BE000CC9DCC9DAB956A954A8DEC9DEC9DAB95AB
:102BF0006A8D2DA66EA64DA6EC9D8A8DAB950C9E7A
:102C0000EB9D0C9E6DAEEB9D0C9E0CA64DA60CA6EE
:102C10000C9E2DA62DA6EC9D4DA60C9E2CA60C9EC2
:102C20002DA6EB9DAB95CB9D6EAE2CA60C9E4DA616
:102C30002C9E0C9E4EA64DA62DA64DA64DA62CA6AE
:102C40000CA64DAE4EAE0D9E0DA6EC9DCC9DEC9D02
:102C50006EAE4EAE4EAE6EAE6EAE0DA62DA6EC9D19
:102C60004DA68EAE4DAEEC9D2DA6EC9DEC9D2DA6F9
:102C70008FAE4EA6ED9DAB95ED9D2EA6AC95CC9559
:102C80002EA62EA66FAE2EA64EAE2EA62DA6ED9D7E
:102C90000DA62EA66FAE6FAE0DAE8B9DC8848B9D1C
:102CA0006A952DAECCA50DAE6A950CA62DAECB9D2A
:102CB0000CA66EB60CA66A8D498D0CA6ECA5CB9D14
:102CC000AB95298DCB9DEB9D4DAE2CA60C9E0C9EFD
:102CD0002CA64DAECB9DCB956EAE0DA64EAE2DA6C1
:102CE0008B954A8D4A8D6A8D6A8D8B958B8DEC9D67
:102CF00029858B8DCC95EC9DEC9DCB95CB950C9E31
:102D00002CA64CA66DAEEB9D2CA6CA958A8DEC9D8B
:102D10004EAE4EAE4EAE2DA68EAE4DA60C9EEC9D8A
:102D2000EC9DCB95EC9DCB9D0CA64DA60C9EEC9DF1
:102D30000C9EEC9D0D9E2DA64EAE4EAE2EA60DA663
:102D40000D9E4EA64EAE0DA60DA60DA60DA6EC9D93
:102D50002DA62DA64EAE2DA60DA6CB9D0C9E0C9E8F
:102D60004DA66DAE4DA60C9E0C9E0C9E2DA62DA6BE
:102D70008FAE6EAE6EAE2EA60DA62EA6AC95ED9DB8
:102D80002DA62EA66FB64EAE8FB62EA62EA6AC954D
:102D9000CC9DCC9DCC9DED9DACA58B9D6B95ECA564
:102DA000CCA58B9D4A954A95AB9DE88449950DAE7F
:102DB0004DAE0CA6AB9DCB9DCB9DEC9DAB952885D8
:102DC000AB95ECA52DA62DA62CA68A95CB9DCB9DCB
:102DD000AA958A8DEB9D0C9ECB9D8B95EC9DEC9DD1
:102DE0008A8D8B95AB956A954A8D8B95AB95EC9DAD
:102DF000AB95AB95AC954EA6CB95EC95AA8DCB95A6
:102E00000C9E2CA60B9E898DEB9D2C9E0C9E0C9EE1
:102E1000CB9DCB952DA62DA66EAE2DA60C9EEC9D22
:102E2000CC9D8A95ECA5CB958A8D6DAE0C9EAA8D16
:102E3000CC95CC95CC9D4FAECD9DEEA52FAE4FAE93
:102E40000EA60EA60DA6CC9D2EA64EAE6FAEED9D87
:102E5000EC9D4DA6AFB68EAE2DA6CB950C9E0C9ECE
:102E60002CA62CA62DA60CA62DA62DA62DA6EC9D37
:102E70002DA64EA66FAE4EA62EA64EA6ED9D2EA654
:102E8000ED9D0DA60DA6EDA5EDA5AC952EA6EC9D90
:102E90000DA62EA6EC9D0DA6ABA52DAE29958B9D5E
:102EA000ECA54A950DAEAB9D2DAEAB9DCB9D4DAE29
:102EB000ECA5AB9DECA56A8D08856A958A95498D30
:102EC0000CA6AB95CB9D4DAE2CA6CB9DAB95AA95F4
:102ED000EC9DCB9D8A8DAEB6CB9DCB9D0CA66EB6E0
:102EE0002DA68B95CC9D0DA68B95CC9D2A8DAC9552
:102EF0000DA6EC9DAB950D9E8A8D0C9E8A8D698DDD
:102F0000EB9D2CA60C9E8A8DAA950B9EAA8DCB9527
:102F1000CB958A8DAC956A8DEC9D8A8DCB95EC9D79
:102F2000ECA5AFB60DA6CB9DAB952CA60C9ECB9574
:102F30000D9EEC9D0EA6CEA50FAECB8CCA8C6C9DC3
:102F40002FAECDA50EA6CC9DEC9D2DA66EAE2DA6CA
:102F50000C9E6EAECFB64DAEEC9DEB9DCB950C9E10
:102F60002DA6EC9DEB9D4DA66EAE0C9E4DA62DA6FE
:102F70002DA62DA60D9EAFB64EAE4EA64EAE2DA6DC
:102F80004EAEED9D6B952DA64EAEAC9DCC9D2DA667
:102F90006EAE6EAE0DA6EC9DE88C2995298D8B9DAD
:102FA000AB9D4A950DAE2DAEAB9D8B9DECA56A9564
:102FB000ECA54DAEAB9D0CA6CB9D2DAECB9D088553
:102FC000AA950CA6AB95498D0CA6CB9DEB9D698D62
:102FD0002CA6CB95AA95CB95AB95ECA50CA64DAEA2
:102FE0004EAEECA5AB9D8B95CC9DECA58B95CC9D69
:102FF000AC9D0DA6EDA58B8D6A85AB8DAA8DCB956D
:10300000AA958A8DAA954985AA95AA8D49858A8D02
:10301000AB958A95CC9D8B95EC9D8A8D8A8DCC9DA8
:10302000CC9D0DA6CC9D0DA60CA62CA6EB9D8A8D45
:103030008FB64FAEAD9DCFAD097C634A424282420E
:10304000697C2FAE0EA6EDA5CC95EC9D0C9E6DAEC9
:103050002CA66DAE4DAEEB9D0CA62DA60C9EEB9D49
:103060000C9E2CA62CA60C9E4DA60CA62DA6EC9D67
:103070000D9E6EAE4EA66EAE2DA6EC9D4EA66EAE0D
:103080002DA6AB954A8DEC9D4EAEEC9D8B95AB95E8
:10309000EC9D8FB60DA68B954A95877CE88C098DA3
:1030A000E88C6A95298DE8844A95AB9D2DAEE8841D
:1030B000AB9D6EB66A95AB9DCC9D2DAEECA54A8DB1
:1030C000E87C8A958A95EC9DCB9D2DA60CA6CB9D80
:1030D000ECA50CA62DA6EC9DAB95ECA5CB9DECA587
:1030E0000CA66A95098D6A95AB9DECA5AB9DAB9D31
:1030F0004A8DCC9DCC9D6A8D297D287DCB950C9EDB
:103100004A8D6A8DEC9D498D8A8D6A8D8A8DAA8D36
:10311000AA8DAB95CB9DCB9DEB9DCB95AB950C9E96
:103120000DA60DA6CC9D2DA60C9EEB9DCB952DA698
:103130000DA6AD9DADA5E8736452A97B2B8CC97B10
:10314000E8734C9D0FAE2EAE0D9E0C9ECB952CA61B
:10315000CB954DA62CA60CA66DAE6EAE2DA6EC9D05
:10316000CB950CA62CA6CB95AB95EC9D4EA60D9EB3
:103170000D9E4EA60D9E0D9E2DA6AB95EC9DEC9D35
:10318000AC9DEDA5EC9DCC9DEC9D2DA60DA60DA6B0
:103190000DA6AFB6EC9DAB95ECADABA5A7846B9D32
:1031A0006A9D098D8B9D8B9D6A954A956A95098DBF
:1031B0008B95AB9DCC9DCC9DAB9D8A95AB95AB9DE6
:1031C000298D8A958A950CA64DAE6EAECB9DCB9D72
:1031D000EC9D2DA64DA68A95AB95CB9DAB9DAB9D49
:1031E000AB95298D0985498D6A95CC9DAB9D8B95B5
:1031F000AC9D8B95AC9D0DA6CB950C9EAB956A9521
:10320000EDA50DAE8B9529854A85297D8A8D8A8D00
:103210006A8D8A8D6A958A95EB9D0C9EAB95CC9DA7
:103220000DA60DA6ED9DEC9D8A8DEB95CB952DA65B
:10323000AC9DAEA5EC94A452AA8335DE17EFF2C57F
:103240002984CB8CCEA5CC9D0DA62DA62C9E2C9E84
:10325000CB952CA6ECA5EC9D6EAE2DA62DA60C9EB6
:10326000EC9DEB9DEC9DEB9D2DA62DA66EAE2DA6A7
:10327000EC9D0D9E0D9E6EAE4EAECC9DEC9DCC9DFC
:10328000AC9D2EAE2EAE0DA60DA64EAE4EAE4EAEE3
:103290000DA6EC9D6A8DAB9529950DAE4A95467CA1
:1032A000E98CEDADAB9DABA5AB9DAB9DCCA5AB9D2E
:1032B0008A954A95CB9D8B9DECA54A8D4A8D298D8B
:1032C00009856A958A958A95CB9DAB958A95AA952D
:1032D0000CA68A952DA6AA958A95EB9DCB9DAB95BC
:1032E000AB9DECA5CC9D298DAB9D8B958B954A8D87
:1032F000AC9D6A958B95CC9D6A8D8B8DEDA58B9D34
:10330000E98C2A8D4B950A8D8C952A856B8D6A8D5B
:103310008B95CC9D6A956A8DCB95EC9D8B954A8D4E
:103320008B95CC9DCC958B8DEC95AA8DAB95CC9D3A
:103330006C958EA5A76BA55AD0B493D555E691BDD3
:103340002A8C6EA5EEA5CC9D4DA62C9E2C9E0C9E87
:10335000EB95EC9DCC9D0CA64EAE0DA62DA64DA6D4
:103360000C9EEC9D0C9E0C9E4DA62DA64DA66EAE01
:103370006EAE2DA60D9E2DA60DA6AB950C9E0DA690
:10338000EC9D8B954A8DCC9D8B958B95CC9D0DA6F8
:103390000DA6AB9529856A8D8BA529954A9D8BA590
:1033A000098D8B9D0DAE298D098D6A95CCA58B9DC0
:1033B0006A954A95298DECA50DA68B95AB958B95B5
:1033C0008B95AB9D0CA6CB9DAA95EC9D2DA64DAEE5
:1033D000EB9D08858A95AB956A95AA95AB9DAB95B3
:1033E0008A95EC9D2DAECB9D298DE8848B952A8DF9
:1033F0004A8D6B950DA6CC9D8B8D2A8D8C9D6B95E2
:103400002B956C9D6C9DCEA58D9D6C954B8D097DEE
:1034100009854A95098D498DAA95AA95AB956B8D1D
:103420008B958B958B95AB8D0C9EAA8D8B8DEDA579
:103430006D9D6A84C55A8A8353CDD1C4F0BC10B542
:103440006C940C9DEEAD2DA64DA6CB8DCA8DCA9564
:103450000C9E0CA60DA66FB62DAE4EAE6EAE4DA652
:103460000D9E0C9E0C9EEC9D2DA62DA60C9EEC9DFB
:10347000CC95EC9D2DA64DA6AB95AB95EC9DEC9D0A
:10348000EC9D8B95E9844A8D29854A8DCC9D0DA6AE
:103490002DA6AB95298529854A95ABA5ACA52A957E
:1034A000ABA58B9D29950DAE0DAEAB9D8B9DCCA58F
:1034B000CB9D4A95C884AFBE8B95498D6A950CA665
:1034C0002DAECC9DECA56A95CB9D0CA6EC9D4DAE8A
:1034D000EB9DAA95AB95EB9D8A958A958A95AA95C1
:1034E0008A95698DAB9D2CA68A956A950CA6AB959D
:1034F000298D6A8D8B952A8D6B95E9846C9DEA8C5C
:10350000E773087C6984EC8C8D9DEEA58D950A850A
:103510000A852A8D2A958A9DAA956A8DCC95AB95A8
:10352000CC9DCC9DCC95CB956A852C9E8B8DAC9DEE
:10353000CEAD876B276BB3CD77FEF6ED32CD30C5C0
:10354000EEAC8A8CAD9DAC95EC95CA8DCB8DCB95B0
:103550000C9E4EAEEDA52EAE2EAE6EAE4EAE0DA6B0
:103560000C9E0D9E0C9EEC9DEC9D2DA64DA62DA6B1
:103570000C9EEC9D0D9E0C9ECC9DCC9DEC9DAB9528
:10358000CC9D0DA68B958B95CC9DCC9D0DA62DA687
:103590008B954A8D29858A95ECADECADA784A884DE
:1035A0006A9DE88CAB9D0DAE298D6A956A95AB9DA1
:1035B000CC9D0DA64A8DAB9DECA50CA6CC9D2DAE49
:1035C0000CA6AB9D2DA6CB9DEB9DECA50CA6AB95BB
:1035D000AB9529858A95AB9DAB95EC9DAB95AB954D
:1035E000CC9D8A8D6A8DAB954A8D6A8D8A956A9538
:1035F0006A8DAB9D298D2A8D2A8D4B95EB8C666348
:10360000C452C45A8352A7730D9D8EA54C95CA848B
:103610002B8D4B952A956B95AB952985AB954A8D4E
:10362000AC95ED9DED95CC95EC95CB8D0D9E2B8DB0
:10363000CB8C266B0C9456E617F637FE56F6D2D591
:10364000F1CD4DA56C9DAB950C9E4C9E0C9E8A8D2C
:1036500049852DA6CC9DCD9D0DA62DA60DA6EC9D34
:103660000C9E0D9E0C9E0C9E0C9E0C9EEC9D0C9E2A
:103670000C9EEC9DCC9DCB95CC9DAB95EC9DCB95BC
:10368000AC95EC9DCC9D0DA68B958B95CC9D2EAECF
:103690006A8D4A8D2985CB9D0DAE6B9D6A95298DCE
:1036A000ABA58B9DAB9DAB9D298D08854A95499512
:1036B0002DAE0DAEECA5498D2DAE6A95CB9D0DA618
:1036C0006A956A952DAE4A8D298D8B95AB95AB95F4
:1036D000AB95498D298D8B95AB95CC9D6A8D8B953E
:1036E000EC9DCC9DAB95AB9529858A8D8A95CC9D1B
:1036F0008A95AB95498D8A8D8C95A97C6A840A84BC
:10370000CFAC93C5AFAC0873E66AC87B0C9DEB9455
:103710000B8D2B8D2B8D4B95AC958B958B958B9520
:103720002A85AC95AD95AC8DEC8DCC8D6B8D4C9583
:10373000A86B655A6EA477F658FEB4E555EE73E6AD
:103740006EBD2CA56C9D8B9DEC9DEB9DEB950C9E11
:103750006A8DEC9D2DA6AB954EA6AB95AB952DA68F
:10376000EC9D2DA64DA60D9E4DA64DA64EA60C9EDB
:10377000EC9D6A8D8B95EC9DEC9DCC952DA6ED9DD9
:10378000EC9DCC9DCC958B95AC95AB95EC9DEC9D33
:10379000AC9D6B956B95CC9D8B9D0DAEECA5AB9DBB
:1037A0008B9D298DAB9D298D09858A95098DAB9DB2
:1037B000CCA5ECA52DAEAB9D0CA6AB95298D0885AF
:1037C000298D8A950CA66A95AB9DCB9DCC9DCC9DF1
:1037D000498D8A958B958B95AB95CC956B8D8B95FB
:1037E000AB956A8D8B950DA6AB9549852985AB95D3
:1037F000CB9D6A8D49858B952A8D2B8DCC94CA8360
:103800004E9CF6DDD5DDF0BCAA8B27734673498448
:103810008A846C95EA84A87C2A8D0A852A85AC95D1
:103820002A852B856C8D4B7D2A752A7DEA7C6A7CE6
:1038300027630973B0B437EE38FEB4E534EE31DEF9
:103840002CADCA942B958C9D8B95CB95AA95AA955A
:10385000CC95CC956A8DAB95EC9DEC9DEC9DEC9D4B
:103860006A8DEC9D4EA62DA64DA64EAE4DA6EC9DA6
:10387000CC9DAB95AB958A95EC9DEC9DEC9D8B8D8D
:103880008B8DAB95CC9DCC9DED9DCC9D0DA64EAE6C
:103890000DA6CC9DEDA50DA6CCA54A95EDA5098D4F
:1038A000098DECA54A956A950985298D4A954A9511
:1038B000AB95AB95CB9DAB9DCB9DCB9DECA58B9557
:1038C0004A8D8A950DA68A952985CB9DCB9DECA521
:1038D0008A958B956A95EC9DCC9DCC9D8B95AB9DE7
:1038E000ECA5AB9DAB95EC9DAB9D6A956A954A8D19
:1038F000CB9D6A958A956A95E9842B952DA50B8CAD
:10390000087B6B8B6FB4D4DDD3DD898B4452A873F5
:103910006A7C2874E97CE97CE97CE9842A85ED9D50
:103920006C8D2B858D8D2B7D2A7DA86C496C8863D1
:10393000044AE86AD0BCD5E574D511CD91CDAFC5A8
:103940000CA5EA946C9D0EA68A8DCB95CB95AA8D7D
:103950002D9EEC954A85AB958B8D8A8DCB95EC9DF4
:103960008A8DAB95CC95CB95AB95EC9D0C9EEC9D43
:10397000AB95AB95CB9DCB9D4A8DCB952DA6EC9D64
:103980000C9E0C9ECB958A8DAB95AB950C9E6EAE26
:10399000CC9D4A8D8B958B95EDA5AC9DCCA58B9D33
:1039A0008B9DAB9D8B9D8B9D4A95298DAB9D8A955B
:1039B0000CA60CA60CA6ECA5CB9D8A95AB9D6A9592
:1039C000498D4A8DAB9D298DE87C8A958B95CC9D40
:1039D000CC9D8B954A8DCC9DCC9DCC9D6A8D8B9535
:1039E000CC9D8B954A8D09854A8D8B95AB9D2985FC
:1039F0006A956A95AB9D4A8DC8840A8D0C9D6B941F
:103A00006DA4F0BC72D5B4DD56EEB3D5697B444AE3
:103A1000E9734874C97C2985666CC87CC97C2A8591
:103A2000EA7CCA7CEA7C886C676C0664A75B0653F8
:103A300066524B7B12C594D512C5F0BC2EBD4DAD60
:103A40000B9D0A954B95AC95AB95AA8D0C9EAA8DB6
:103A50008A8DCB95CC95CC95CC9DAB95CC9D2DA648
:103A6000CC95CC95EC9DCC954DA6EC9DCB950CA61C
:103A70002DA64DAEECA5CC9DAB95AB950D9ECC95F2
:103A8000EC9DEC9DEC9DAB95CC9DCC9D6A8D8B9572
:103A90004A8D0985CC9D0DA6ECA50DAE6A95CCA5E9
:103AA000AB9D6A95ECA58B9DAB9DECA56A8D0CA694
:103AB000ECA50CA60CA6CB9DCCA50CA6CB9D4A8D47
:103AC000CB9DAB9D6A956A95AB9D6A958A958A95C3
:103AD000AB9DAB9DAB95298DCC9DCC9D8B958B954E
:103AE0006A8D09850985098509856A8D4A8D2A8D22
:103AF0002A8D09854A8D6A8D298D8C9D4C9DAC94AB
:103B0000CEACB3D5B3DD32D516EE36EEB0B4665AD0
:103B1000844A8A84677426648774C97CC984A97CB2
:103B2000CA84AA7C686C476C2664286CE54AE33931
:103B3000A85ACE9374CD73CD72C530B52DAD0BA5FB
:103B40000A952A952A850A85EC95AB8D2C9EAB8D1E
:103B50004A858B8D2DA64DA6CC9DEC9DEC9DAB95FD
:103B60006A8DCC950C9E0C9EEC9DEC9DEC9D2DA63B
:103B7000CC9DEC9DCC9DEC9D0C9E6A8D8A8D4A85DA
:103B800029856A8DCC958B952DA64EAEAB95CB95A0
:103B9000CC9D4A8D6A8D4A8DABA54A958B9D098D2A
:103BA0008B9D0DAE8B9DCCA50DAE0DAEAB95CC9D7A
:103BB000CB9DCB9DECA5ECA5ECA50DA60CA64A8D46
:103BC000AB95CC9D8A95298DAB958B95AB95298D21
:103BD000CB9DCB9DCB9D298D6A954A8D29854A8D9C
:103BE0002985C87CE8844A8D4A8D8B9529854A8D24
:103BF0002985E984098529856A8D6B95C984EB94AB
:103C0000AC9470BD30C531CDB4E5B4DDB1BC4A83F0
:103C1000244AA452E76BA55B266C276C476C276C83
:103C20008A7C486CC55BE65B644B454BE64AC852F0
:103C30000B6BEF93F6DD94CD72BD2FAD0C9DEA9426
:103C40000A956B954B8D0A7DAB8DCC950C9EEC9DAA
:103C5000AB954A85AB950C9ECC9DCB95AB95EC9DD9
:103C6000EC9D0DA60C9E0C9E2DA6EC9DCB95CB9DA0
:103C7000EC9D4DA60CA66A8D0C9E6A8DCC95EC9D94
:103C8000CB95CC9D0C9EAB95AB950DA6CC9DAB95E5
:103C9000AB956A8DAB95CC9D2995ABA5ECA58B9D7D
:103CA0000DAECCA5AB9DAB9D6A95098D4A8D298D36
:103CB0008A95AB9DAB95EC9D2DAEAB9DAB9D298DB3
:103CC0004995CCA5ECA5498D08858A958A95498D9D
:103CD000CB9DAB956A958A956A8D498D09854A8DEC
:103CE0004A8D4A8D4A8D2A8D0985AB954A8D6B8DFB
:103CF0002A8DE984E984C87CE77429852A8D0B8D97
:103D00008A84CD9CEEACCFB46EB4B4DD12C58C9376
:103D1000E872E341E55AA76BA563A55BA65BC763A1
:103D2000286CC65BA5536453E3426232453AA952FC
:103D30000842EC6A34BDF5D531B5CD9CCB94EA8C04
:103D4000098D2A8D4A852A7D4A85CC95AB95CC9DD7
:103D5000AB95298529856A8D8B954A8D4A850C9E60
:103D60000CA6EC9DAA8DAB95EC9DCB95EC9DAB95EF
:103D70006A8D8A95AB954985CB95AA8DCB9DAB95E0
:103D8000CB9DCB9DEC9DCB956A8DCB9D0DA6EC9DDF
:103D90006A8D6A8DAB95AB956A95ECA5298D6A9570
:103DA0006EB6CCA52DAEAB9D4A956A95E884AB9DC9
:103DB000AB9DCB9DAB9D8B95298D4A95AB9D499530
:103DC0008A9D8A958A95CB9D498D0885498DAB9DA5
:103DD000AB95498D498D8A956A8D8A954A8D08855E
:103DE000E8844A8D6A8DC87C87742A8D4A8D6B95CC
:103DF0004A8DC87CE984C87C298508752A85897420
:103E0000697C0974ED9CCDA46DA411C516E612C59C
:103E10002A7B665A8239844A655B655B655B865B93
:103E2000865B4553C65BE342A232C542E4292421A6
:103E30006310E520C7498C7BCF9C4B84AA84EA8C15
:103E4000E98409852A854B8D8B8DEC9D6A8D8B9538
:103E50004A8D6A8DCC9DAB95AB95AB958B95CB95EB
:103E6000AB95CB95CB950C9EEC9D8A8DAB95AB9588
:103E7000CB95CB95EC9D8A95CB950C9E0C9E8A9507
:103E8000EC9D0C9EEC9D2DA6CB9D8A8D8B95498D2E
:103E9000E87C8A95EC9D8A95ECA5ECA58B9D6A9DA6
:103EA0000DAE8B9DECA5CCA5ECA54A95298DECA576
:103EB000AB9D6A8D8A95AB9D6A958B9DAB9DAB9DA5
:103EC000ECA58B9DE8844A8D6A95CC9DECA5AB95BD
:103ED0006A956A8D4A8D6A95AB954A8D6A95E87C9C
:103EE00009852985AB9529858B9509850A854B8D93
:103EF0000A85E984A87C0985097DE874C974486C41
:103F0000AA748A7C087429846C9C30BD93CD94CDAE
:103F1000509CEA72E649C3396342E44AE44A2553B5
:103F2000665B6653865B65532543C642C5294519C2
:103F300047210721E420C2184A638D8C697CE984FB
:103F40006B956A8D097DE97C2A858B954A8D8B95C9
:103F5000CC9DAC9D298D08854A8DAB956A8D6A8D67
:103F60008B8DEC9DCB95EB95EC9DCB95AB95EC9D1E
:103F7000EC9DCB95EC9D6A8DAB95AB958A95EC9DB0
:103F8000EC9D498549856A8D498DAB958A95498512
:103F9000498DEC9D2DA68A8D4A95ABA5CCA54A9559
:103FA000ECA50DAE0DAE4A95CC9D6A95CB9D2985AD
:103FB0008A95AB9DE884298D298D8B9D8B954A959B
:103FC0008B95CC9D6A958B9DAB9DAB9D6A95298DFC
:103FD000298D298D4A8DCB9DAB954A8D8B95298D49
:103FE0004A8D4A8DAB9529854A8D0985E9844B8D8B
:103FF0002A8DC87C8874C87C8774C87CC97CEA7C9C
:10400000AA7C286CC763E76B6A8CD1BDB3C557DE49
:104010000F946A5A6A5A6431A229633AE44A2553D2
:10402000875B044B244B454B464BE6424311C40887
:1040300085086408420020002219CA6BCB840A8DCF
:104040000985C87CE97C6B8D4A8D6A8D2A8DAC9D73
:10405000AC9D4A8DE88408854A8D498509856A8D1D
:104060008B8DAB956A8D8A8DCB95AA8D8A8DAB95FC
:10407000AB95CB95EC9DCB95EC9DCB95AB950C9EE4
:10408000EC9D6A8D6A8D6A8D4985CB95AB954A8D7D
:10409000498DCB952DA6CC9D298D6A958A9D6A95D3
:1040A000AB9DECA5CCA5AB9D6A956A950CA6C88482
:1040B000298DCCA5098D098D298D4A95298D6A9563
:1040C000AB9DCCA54A8D8A958A958B9D4A8D298575
:1040D0004A8D6A8D6A95CB9D8B954A8D8B954A8DBD
:1040E0004A8D09856B954A8DE9842A8DC87C677451
:1040F000A87CA87CE9848774877CE984897C2B8DE3
:10410000AA7C286C276CE763044B0A7492AD12A555
:10411000494A262963104529043A8442E54A054B59
:10412000A75B0343E342454B6653895B8519A400B3
:104130004400E7108821C729221989636A746874CA
:104140000985097D2A854A8D4A8D4A8D2A8D6B9570
:104150002B8D6B95AC9DAB9D6A8D8B95CC9DEC9D0D
:104160008A8D4A8549858B8D6A8D8B8DEC9DCB958B
:104170006A8D498D8A95CB9DAB956A8D4A85AB95A5
:10418000CB95CB95CB956A8D6A8DCB958B956A8DAA
:104190008A8DAB95AB956A8D6A95AB9DCCA5ECA548
:1041A000298DC884298D0DAEAB9DAB9D8A954A950E
:1041B0000985AB9D6A95E884E884298D08856A9510
:1041C0006A958A95098D4A954A95AB9D8B95298D5F
:1041D0004A8D4A8D298509854A8D09854A8D2A8D02
:1041E0000985A77CE9842A8DE984C87CA87CC97CE0
:1041F0002A8DC97CE984E984E98C0A956874A97CD4
:10420000897C69748974C663C75B675B2532021158
:104210002519C5188510E518E531C64AE54AC34297
:10422000865B6553444BA65BA85BAA5B23118300A6
:104230002711CA292A32493AE629CB6BAB7C89740B
:104240002A85A874C87CE984E984098D09852A8DAA
:10425000C9842A8D4A8D0985C87C09854A8D4A8D75
:104260004A856A8D6A8D6A8DEC9DAB95AB958A8D7A
:104270006A8DAB958A95AB95CC9DCC950C9EEC9DAB
:104280006A8D4A8DAB95AB954A8D8A8D2985498576
:10429000AB95EC9DEC9DEC9D8A95CB9DAB9D0CA6C2
:1042A0008A95098D498D6A95AB9D298DA77C6A9564
:1042B0006A956A956B95098DC8846B954A954A8D68
:1042C000E9846A956A95AB9D09856A954A8D098549
:1042D000298D298D098509854A8D4A8D8B958B9568
:1042E0004A8DE984E9842A8D0985A87CC97CC87C2B
:1042F0000A85E984C984E9842A8DE98C687C48743C
:104300004874486C4874C65BE9634C6C052AC20863
:104310006619C510472105196421495B885B45531F
:10432000A55BE663C55BE763C863CA634319A30083
:104330008821C60864008300E308A7424B74A97C67
:104340002A85876CA8742A8D4A8DE984C8842A8DB1
:10435000EA84EA842A85098509854A8D8B956A8DC8
:104360006A8D4A8D6A8D6A8DCC958B8D6A8D298573
:104370004A8DAB95AB95EC9DAB958B95CC9DCB9534
:104380006A8D8A8DCB95AB956A8DAB958B8DCB95D0
:104390000C9ECC9DAB95AB95AB9D8B9D298DECA5D3
:1043A000ECA5AB9D8B9D0885298DE884E884298D3B
:1043B000AC9D098DE9844A954A958B9D298D298D5F
:1043C000E9844A954A8D298DE884E984298D6A9586
:1043D0006A95298D09854A8D0985E984E9840985CD
:1043E0000985C87CC87CC87C0985C97CC984466CA1
:1043F000466CC97CC97CA87CC97C887CA97C897CEA
:10440000897C076CE6630864C95BA63A8411A30043
:10441000630064006400C4106421AB63E96BC7638C
:10442000E6636774276CE7632A6C6C7CE62962009C
:10443000A508650007112A320832E94A8C7CCA7C3B
:104440002A8DE87CA8740985AC9D2A8DC9840A85CB
:10445000C97C4B8D8B956A8D09852A8D6B8D8B95CB
:10446000AB954A8D8B8D0DA66A8DAB95CC958B8DBA
:104470006A8D6A8D8A8DEC9DEC9D6A8D4A854A8D88
:104480008A8DAB956A8D087D298529852985AB950F
:104490000C9EEC9DAB956A8DEC9DAB9D8A950CA610
:1044A000AB9D298D298D098D298D298D4A95298DC1
:1044B0006A95098DC8842A958B9D4A95C884E9849C
:1044C000098D0985C884877C2A8D09854A8D8B9D35
:1044D0006A95098509850985E984E984C87CA87CF1
:1044E000A87CC87CC87CE984E9846774887C0A85D8
:1044F000A87C887487748774676C876C8874A97CBF
:10450000A97C076CC663096C895B2109A200A30022
:1045100084008500A508C41024198A5BA85BC65BCB
:10452000266467746774E7632974CA6B8421410049
:1045300064008508C6084719A729683A8D7C696C0C
:104540008874E97CA87C09854A8D2A8DE984E984F0
:10455000EA7C4B8D4A85A8748B958B954A8D4A8D44
:10456000EC9D6A8D29856A8D8B8DCC95CC95EC9DC3
:10457000EC9DAB958B958B956B8D4A8D8B8D8B8D33
:104580008B95AB958B8D8B8DCC9D6A8DE97C298528
:104590006A8D6A8D6B8D2A85AB9D6A958B95AB95DF
:1045A0006A956A954A8D098D2A8D4A95098D2A8DBD
:1045B0002A8DCCA5CDA54A954A958B9D4A95098D06
:1045C000098D4A8D6B95E9840985C88409852A8DF2
:1045D000098509852A8D2A8DC87C098DE984C87CC6
:1045E000A87CC87CC9840A85A87C466C466C0A8570
:1045F00088744774887C6774686C88740664677410
:10460000887C4774C663A763CA638319082AE508D0
:10461000A500C6080511E3106319AA63E963076CD6
:10462000476C0564476CE7636B7CA6424000410021
:104630008408A50843008400A300C5218D7C69740B
:10464000686C4A8DC87CE9848B954A8DE9842A8DF3
:104650002B854B8D6B8D2A852A856B954A8DE97C40
:104660008B8D0985A874E97CE87C8B8D8B8DAB954F
:10467000AB954A8D8B95CC95AB958B95CC9DAC9598
:104680008B958B8D2A856A8DCC958B956B8DAB9593
:10469000AB958B95AB956B8DAC9DAB9D6B954A9512
:1046A0002A8D8B9D6B954B956B950A8DC884E984FB
:1046B0006B954A958B9DAC9D098D0985098D098562
:1046C0004A8D4A8D8B954A8DE9842A8D2A8DE984FD
:1046D000E984C87CA87CC984E984E9840A8D2A8D90
:1046E000C87CE984E984A97CA87CE984A87C476C1F
:1046F00067744774A87C887448744874E663066CD1
:10470000887C687C887C29740A6CE529C308E508E4
:10471000C50884088300600082210A6C096C286C3B
:10472000476C476C6874086C8C7CC329400062003D
:10473000840064008400E508C3084311EA63EC8444
:10474000A97CA87C0A85C97C2A8D0985C97C0A8533
:104750008C95AC95097D09854A8D0985E97C2A856A
:104760002A85097D097D6A8D6A8DAB952A85E87C4D
:10477000EC9D4A8D2A858B950D9E6B8D0D9E6B8DC4
:104780006B8DAC95098509852A854A854A85CC9D1E
:104790008B956B8D8B8D6B8DCCA58B9D6B956B9558
:1047A0002A95ACA54B952B952B956B9D2A950A8D3B
:1047B000E9840A8D4B956B952A8DC87C098D0985F6
:1047C0002A8D298D098D2A8D098D2A8DC984466CE3
:1047D0006774C87CC984C984E984E98C6774887C5F
:1047E000887CC984887C0A856874A97C2A8D477472
:1047F000887CC984687C687C68742874076CE66B64
:10480000677468746874286CEA6B052A8200630018
:10481000840084008308400044322A6CE763E76325
:10482000676C8874A97C49742B74A3216000A20072
:10483000A40084008400A400C3002211C963EB8497
:10484000A97CE9840A85C97CC97C2A8D4B8D2A8D77
:10485000EA7CE97CA8744A8D4A8DE97CC87C09858C
:10486000E97CC87CC87CE87C6A8D6B8D4A850985AB
:104870008B9509852A856B8D09858B8D8B8D2A8576
:104880004A8D2A8509854A85097DE97CC97C2A8566
:104890002A858B8D8C956B8DAC9D4A95C984C88477
:1048A000677CE98CA884A884E98C4A950A8D2A8DB6
:1048B000E984098DE98CC8840A8D2A8D0A8DC88403
:1048C000E9842A8D4B95098D4774C984E984A87CB5
:1048D000C9840A8DE98CC9840A8D887CA97C687C8E
:1048E0004774687CEA84A97C4774A97CC984687C85
:1048F000C9844774687C887C076C276C687CC663B5
:10490000066C6774276CE763CA63E529820064005C
:10491000840063006200A108695B8B7C486C276C93
:10492000476C87746874486CA8632111400082004A
:104930008300840064004300C3080109C95B8A74D2
:10494000476CA87CE984C97CC984098509850A85E6
:104950002A8D2A8DA874A8746A8D0985C87CC87CA4
:10496000A874C874C87CA7744A854A8D6A8D298545
:104970002A8D09856A8D4A8D09856B8D4A8D098539
:104980004A8D4A8D2A856B8D0985C87CC87C09852E
:104990000A856B8D4A8D2A85887CC884A8844A95AF
:1049A000E98C4B9D4B9D4B95C98CA884677CC98431
:1049B000C884A884C984C984E984E984C9844B95DE
:1049C0006B95C9842A8DC984887CC984C984E9848B
:1049D000C984C984A97CA87CA984CA84897C897C6F
:1049E000A984A97C477468744774887C47742774C9
:1049F000A984E66B4874897C6874066C887C47746B
:104A0000887CA87C0764E8630B6C43194100A40808
:104A1000E610C51062008000685B4974276C06646C
:104A20000564476C276C4974A96300116000A308F2
:104A30008400840085006300C30042116B740C8500
:104A4000486C8874887488740A8D0985C87CA87439
:104A5000A87CE984A774A7742985C87CA87CA7745E
:104A6000A774097D2A85097D29856A8D6A8D298526
:104A70002A8D4A8DCC9D6A8D8B8D09854A8D09853D
:104A8000C87C298509854A8D2A85C87CA874E87C5C
:104A9000E97C4A8D29856B8D0A954B9DA8844B9D99
:104AA000E994E98C4B9D2A95EA94A984C984EA8CFF
:104AB000C9844774677C677CC984C984C984A98414
:104AC000A984887C0A8D0A8D887C887C2774887CE0
:104AD000687C897C887C687CEB8CCB84076C897CC7
:104AE000687CA984076C887C897C687CA984076CB5
:104AF000697C697C4874897C276C4774EA84476CBC
:104B000047748874286C096C8A5BA1006200C50830
:104B1000A508E510420060000753E763E763E5631B
:104B20000564476C276C6A74EA6BE01061008308C7
:104B3000430043008500A400C30843112B74AA7CE2
:104B4000E6636774A97CE984C87CC87C8774677451
:104B500088740A850985098509850985E97CA87C09
:104B6000A87409854A8DE97C09850985E87CC87C9B
:104B7000098509852A8D2A8D6A8DE8844A8D0985E3
:104B8000A77CA77CC87C6A8DA774E87C2A8D2A85BF
:104B9000C87CE984C97C4B8DEA8C2B95C9848C9D9B
:104BA0006C9D0A8D4B9DC98C0A95C98CEA8CEA8C48
:104BB000EA8CA984C9846874E66B897CAD9DA9845C
:104BC000897C0B8DCA84897C076C4874276CA97C0E
:104BD000887CA984CA84697C49748A7CCA84AA8432
:104BE000697C897C4874C6636874687468742874C6
:104BF000697C697C4974086C855B476C6874C55B2B
:104C0000E663486C49742B7445326000E410C508B3
:104C10004300A40862008000064B49748974276C25
:104C2000E563E56307648A7CAA63A008400062002C
:104C3000430023008400C508A20022112B6CEC84E1
:104C40006874897468740664266C266C266C466CDD
:104C5000676C0A85A874676C4A8D6B8D2A85E97C20
:104C6000E97C4A852A85E97C097DC874466C87748D
:104C7000E97C8774676CE97CE97C2985E87CE87CC1
:104C80002A858774C874298509850985C87CE97CCB
:104C90004A8DCC9D4B8DC97C0A8DC9848984CA8C70
:104CA000EA8CA9840B950A8DEA8CCA84A984A97C14
:104CB000A97C0B8D6C950B85897489742B8DCA7CAE
:104CC000AA7CCA7CA97CA97C286C6974286CAA7C03
:104CD000286C286C69744974E7638A746974855315
:104CE0002864E763E7632764E663E763A55B07641B
:104CF000E763C75BE86365530764E663444BC65BE1
:104D0000AA74086409640B6C631961008308840049
:104D10006300C41082006000853A49746974276496
:104D2000E65BE663E7634A74485B6000410062004B
:104D300063006400A50805114511A4210B64AB7C38
:104D4000486C687488740664C97CC97CA87C676CEC
:104D50000764A974A8748774A8740A85E97CA87488
:104D60002A858C8D6B8D2A852A85C974676CC97CD0
:104D7000E97C686C88740A856A8D6B8D2A85098543
:104D8000AC95E97C0985097DC97C0A85A974E97C13
:104D90000A858C95AD95EE9DEA84897CCA84A984A8
:104DA000CA84A97C0B8D4C95EA842B8D4C956C950F
:104DB000CA7CA97CA97C486CEB84EB8469748974F7
:104DC000AA74696CAA7C07640764E75B86538A74DB
:104DD0002864E75BC75BC75B454B254BE43AE85B60
:104DE000E75BE75B444B854BC65BC65BE75BA65363
:104DF000454B0864C75B454B654B696CA653A6538E
:104E0000496CA75BC95B4953A10082006300840819
:104E10008408830062008000A53A2A6C0864076455
:104E2000686C69740864C963C74A40004100420065
:104E3000630063008400A400C3000209284BE863F8
:104E4000C65B686C0B85A974276C686C686C476CD2
:104E50000764A9748874676C686CA974686C2764AB
:104E6000E9744B850A7DEA7C0A7DC974A974EA7CE1
:104E7000C974A974EA7C2B854B85E97C6B8DC97458
:104E8000EA7C886CA86C47640A7DC97447642B85EA
:104E9000AD956C8D2B852B85EB7C8974CA7C4C8DF4
:104EA0002B85AA7CEB842B85CA7CA9742B85EA7C94
:104EB000AA74275C6864896C2864EB7CCF95696C64
:104EC000864BAA74AA742964654B085CC7538A6C24
:104ED000CB7429642543C753864BE853085C864B43
:104EE0006543E753043B4443C23265434543496449
:104EF0008A6CE85B8B6CE85B4643464B6A6C654B9F
:104F00002543E95BAA5B052A400062006300430079
:104F1000830862004100A100A63A0A64C85BC75B2F
:104F2000454B254BE8634B74E84A60008200420021
:104F3000630043006300C408A300C100AA5BE963E7
:104F4000E863AA74CA7C89748974897427640764C5
:104F5000E75B696CA974C9744B85AA740B7DCA742C
:104F6000EA74A96C8964CA746C858964896CA96CBB
:104F70006864896CEA7CEA7CA96C275C2B7D886478
:104F8000686468644C850B7D4C856C85CA74AA6C1A
:104F9000EB74CA74AA6C285C69642864EB740C7D99
:104FA0008D8D8D8D4C858D8D4C85896CE753CA6CAC
:104FB000AA6CC753AA6C495CC74B495C0C7D2C7D1D
:104FC0006A64295C085C49648A6CAB6CAB6C4964AC
:104FD000295C6A6445434964EC74295C6A64874BC4
:104FE000864BA74B864BC74B6543C74B0854496458
:104FF000EC740854E853A84B8C74674B874BC85328
:10500000874BAD742D6C63118200A3088308630085
:10501000A308A3088200C208252AA53AA85B053B7D
:10502000C43A0543A43A4853A7426000A308A30822
:1050300083006300A4086619C721072A8A5BE96315
:105040002964AA742864496CCA74AA74075CE75B73
:105050008A6C8A6C0764AA746964075C07546443A9
:10506000C653CA6C89648964EB74285C075469640C
:10507000C64B89648D8DCE95CE8DCA6CCA6C285C6A
:1050800069640754485C0754AA6C8E8DEB74C7534F
:10509000EC74CB6C6A646A64A64B2C7D8E858A6442
:1050A00049648964AA6C6964EB74CA6C69640754C6
:1050B000285C285C8A640854EC748A640C758E85BC
:1050C000CB6CCB6C0C752D75AB64295C4D7D6A6423
:1050D0006A5CE8536A64CC6C295C463BA74BE85396
:1050E000E8536A64A74BE853E853E432E8530533C6
:1050F000463B295CE8536322263BE63A632AA84BE9
:105100004743CA536A5343118200A3084300220055
:10511000620082006200A100863289532322E95B8B
:10512000E95BA853E642EB6346324000620063004D
:1051300063006300A30005110409E6216953C53A21
:105140000543C332043BC7536964243B45436A6C3F
:10515000A74BC332C753A65308548643E753E74BC4
:105160000854CB6C495CC74BC74B2854EB74695C43
:105170008643AA6C4D7D6D852C7DAE8DCB6C295CF4
:10518000AB6C69642D7DEC740854E8536A64E85391
:105190006A644A5C295C8F85695CAA6CCB6CAA6CDA
:1051A00007540B75E7536964AA6C896469648A645F
:1051B000AA64A6436A5C084C4D7D4D7D6A5C8A6496
:1051C0008A64495C0C758A64663B29548A64874307
:1051D000AB640C75053329544A5CE853874B095C72
:1051E0004643A84B095C6743E532263BA84BE9538D
:1051F000A84BA32A463B8743C532273B095CE432D0
:10520000C953684BE41985198200830842002200C3
:1052100042004100610081006632E73A4743C953CA
:10522000E532A532684B8A5B063282008300840037
:10523000C408C408E40804096619272ACB5B47435D
:105240002543E4324643053B6643864B6A64A74BDD
:10525000053BA74B085C04336A6408540433A64337
:10526000CB6CE84BC32AE84BCB6CE74BC32A6A5C98
:10527000CC6CA74B2D7D8A64A74B8643695C8A64FE
:10528000A74BA74BCB6C09546643874329544A5C10
:1052900009540954463BE42A0C758A64495C285435
:1052A000CA64AA642C75CA64EB6CEB6C8A64695C92
:1052B0000C758A5C4A5CCB642954CB6CAB64084C9B
:1052C0002D75CB640854EB6CAB644954084CEC6C02
:1052D00049548A5C6A5C6A5CA74BC853C95347430C
:1052E000EA5B6743E63247432743C532C532263B74
:1052F0000A5CC84B8322263B8C6C27436643A74B32
:10530000A84BA94B662AC10083004200220042003C
:10531000420021004200A200663244224743063B7D
:10532000E5324743A953AB53E2086100A300840070
:105330008400A408E5082511292AA93A494B674B9E
:1053400062220433A74BA74B66430854453BA32A6C
:105350004643095CCB6CA74BC74BCB6C0954C74B7E
:10536000C74BE74BC743A6438743C7434954085439
:105370002D756A5CA322E84BE84BA322495C0C75AF
:10538000CB6C495C864387438A642954A322C74B6C
:105390002954463BA84B8B64C74BAB642C75895C86
:1053A000A643EB6CEB6C896410960754695CAA64A5
:1053B000653B6A5CCB6C2C752854AA642C75E74B52
:1053C000495C085425336A5C0C752954CB6C6E7D9E
:1053D0000954084C6A5C0D75E95BC8538C6C4743F3
:1053E00084320743EA5BA953684BCA5BA52A842A27
:1053F000C953E953E532463BE953473B295C6A5CB4
:10540000A42A894B294384198200420022006308A0
:10541000420021004200C200E83AE632C52A632277
:10542000095C053B2743452A60008200C408A408A4
:10543000A408E50826116619C7198C53A632A42AB8
:10544000A74B453B6222463B2D75C32AC42AE84B35
:10545000A84BE432253B6A5C8A64E84B4A5CCB6C1F
:105460004533863BEC6C4954663BE84B0C6DC84BAE
:10547000663B8E850954463B08542954A74308547B
:105480008E850C75E84B09546E7DEC6CA743E42ABD
:10549000453B463BE9530D754D756D7D8A64695CEE
:1054A000E74BA64B6964695C2C756D7DCB6C495CE0
:1054B000A74B8A644D7DCB6C495CAA64495C495C0E
:1054C0008643663B6A64695C495C6D7D0C752D752D
:1054D0006A5C6A5C0854C84BCC7C8C74A95BC95B61
:1054E0008532C000442A4532A63AAA5B2B64274382
:1054F000842A874BA84B263B6743263B453BA64364
:105500008B648422E83A8832C30863006308830806
:10551000830863008300C3002522263B6743E532EE
:10552000832246432743A3198000A2008300A400DE
:10553000E508061126114511A619E93AAA53A84B08
:10554000C74B86438A646A5CA322663BE84B874369
:105550002533C84BE853453BC84BA743C84B0954B8
:105560004A5C4A542954C84BC8430533052BE84BC1
:10557000663B4A5C4A5C495C2954495CA643C74B7C
:10558000695C8A640C75C74B453B25332954E84B4D
:10559000C74BCB6C6A5C86438E85495CC643EB6C1B
:1055A000CF8D6964495CAA64653B4C7DCB6CA64B8E
:1055B0004D7DAB6C86432954EB6C08548A64CB6CEC
:1055C0000854AA646A64CB6CEC74EB6C0C75495C8F
:1055D000495CC74BE8534A64095CC95BEA634853BA
:1055E000919D729DF08CCB63E8426953284B0B640C
:1055F000C953842AA84BC853053B263BA74386437F
:10560000A743A84B0C646732E30883086308830848
:105610006308630063008200C73A4743874BA42AAC
:10562000E432C9538A534209A100A3006200A400D6
:10563000E508E508061125116611C93AAA53C953B0
:10564000E432453B495C2533C74B663B0954E84B84
:10565000663B4A5C0954E84BA74329540954463B2E
:105660006A5C8B5CE84B8B64AB64874325338B644B
:105670006A5C29544A5C0D75AB6C663B6A64EC6CE1
:105680006A646A5CCB6C29540854E84B495C0C751D
:10569000E84B8A640C75E84BAA64AA64EC74E74B87
:1056A0006A64AA6C285C495CC74B0854654328545B
:1056B000EB6C2854A643495CA743495C6A5CE84B01
:1056C000CB6CAF85C74B0854AB6C4A5C0C75CB6C8C
:1056D0000854285C8A64AB6C263BE63A89530C6418
:1056E000DBE7FEF71AD777BECD6B094BA73A284305
:1056F000884BC532E53267430A5C874B053BA74BB5
:10570000874B6843694B462A030983008300840062
:10571000830863000100A5218953C432832A6643AC
:105720002A64A9534A4BA1008200830083008400AD
:10573000C408E5082611261125110A4B0843642ADE
:105740004A64653BC32AE84B4A5C463BA74B664329
:10575000495CA74B253BA743A7432954A74329549A
:10576000A743E84BEC6C463BE532C84B6A5CC84B40
:10577000295CCC6CE853E8538B6CE853E85308542D
:105780008B64CC6CC84BA74BCC6CCC6C29544A5C5A
:10579000AB648743253B6A640854CB6CEC74695C4A
:1057A000EC74CB6CCB6CE8532C75695C453B285C86
:1057B00086430854495C8A642954AB646A5C0C755E
:1057C000CB6C4A5C0C752D75495CEC74CB6C8A64AF
:1057D000495C6543A64B295CA84BEA5BCA5B4D6CF0
:1057E0009BDFDCE7DDEF77BECC63094B69530743F2
:1057F000E63A4643E953E532A84B2643053B474387
:10580000A432C632AA53262AE308C408A40084009E
:105810006308630001000211E63AE432253BC853F5
:105820008853284B062A6100A300A400A400A3000B
:10583000A400E5080611261186194732EC630A5CBC
:10584000C853E74B8A640954832266430954A74B23
:10585000453B253BC84B4A5CA743C7436A5C6A5C2F
:10586000A7432533C84B8743263BA74B8B64A42A09
:10587000A74B09544A646A644A5CED746743A42ADE
:10588000AC6CB08DE95329544E7D4E7D8643053373
:105890000954495C664366434D7DA74BE7538E85AB
:1058A0002D7DC74BEC746A64C32A0854EC74AB6C4E
:1058B00008546A640854AA648E856A5CA7434D7DC7
:1058C0006A6409546E858A64EC6CAB6C495CA74BC6
:1058D0002854495CC74BE8530954AC6CA5322C6C76
:1058E0009ADFBBE7FDEFBBDFAB5BE742AA53EA5BA6
:1058F0006B6CE9532A5C4A64E532C853E953A4321D
:1059000047432B64494B2209E300E40884008408E0
:10591000630042002100800085322643264367430E
:105920008853CB5B6411A2008300A400C508A408BF
:10593000A408E50806112611861985198A53C9534A
:105940000533A74B495C2533874329546A64C74B09
:10595000C74B495C295C2533C74BAB64085486436D
:105960008B64C74B66436643AB6C4A5CE85309548F
:105970006A646643E9532A5CC84B09540954664378
:10598000C853C853AB6C295C095C295C2954AB64CF
:10599000295C6A64AB6C0533CB6C0854EC74495CCD
:1059A0000854CB6C6A64295C8643495CAB6C495CE7
:1059B000CB6C495C654366436A5CE84BA74387430D
:1059C0004A5CA74BE84BAB6C8A640854295C495C81
:1059D000295C28542433864366438743C8532743AE
:1059E0008D741085B29DF4A50C64C63A2743E95323
:1059F000CC74C84B253BE853A74B874B4643674BBA
:105A0000A853484B6A4B6311E308A300630084006A
:105A10004300220021006000442A053B4643063B28
:105A20000743E842E200A30063008400A400C50825
:105A3000C508E508E61006114611A519462A273BB8
:105A40002A5CC74BE42AE84B0954253BC84B8643E4
:105A5000C74BA64BA74B295C495CA743663B8743D2
:105A60002954E84B8B646A648B644A5C053B095497
:105A7000295C295C0D7D2E7D4A5C66434E7D2D7D23
:105A80002A5C09544E7DE85309540533463BAB6C00
:105A90004A5CC74B0C75E853A64B8A644D7D495C44
:105AA000A74B8A640854E753CB6CE85386436A6477
:105AB000495CC74BE853A74BA74B6A646A646A64A6
:105AC0004A5C4A5CC84B6E85AB6C2D7D8A642D7533
:105AD000AB6C295CE84B6A5CE84BE84BA74B8C6CE1
